:020000040800F2
:100000000028002071010008B93B0008BB3B000834
:10001000BD3B0008BF3B0008C13B000800000000DA
:10002000000000000000000000000000D91A0008D5
:10003000C33B000800000000A11B0008C53B0008EE
:10004000B9010008B9010008B9010008B9010008A8
:10005000B9010008B9010008B9010008B901000898
:10006000B9010008B9010008B9010008B901000888
:10007000B9010008B9010008B9010008B901000878
:10008000B9010008B9010008B9010008000000002A
:10009000000000000000000000000000B90100089E
:1000A0000000000000000000000000000000000050
:1000B000B9010008B9010008B9010008B901000838
:1000C000B9010008B9010008B9010008B901000828
:1000D000B9010008D53B0008B9010008B9010008C2
:1000E000B9010008B901000800000000000000008C
:1000F0000000000000000000000000000000000000
:0C01000000000000000000005FF808F1A3
:10010C0010B5054C237833B9044B13B10448AFF345
:10011C0000800123237010BD0C00002000000000A3
:10012C00A43F000808B5034B1BB103490348AFF3C8
:10013C00008008BD0000000010000020A43F000853
:10014C0010F8012B11F8013B012A28BF9A42F7D075
:10015C00D01A7047034613F8012B002AFBD1181A4A
:10016C0001387047002103E00B4B5B5843500431BE
:10017C000A480B4B42189A42F6D30A4A02E0002373
:10018C0042F8043B084B9A42F9D300F011F803F003
:10019C0083FE03F085F87047B84200080000002089
:1001AC000C0000200C0000207C140020FEE7000056
:1001BC000F4B1A6842F001021A6059680D4A0A4046
:1001CC005A601A6822F0847222F480321A601A681B
:1001DC0022F480221A605A6822F4FE025A604FF40C
:1001EC001F029A60044B4FF000629A60704700BF88
:1001FC00001002400000FFF800ED00E010B50446CE
:10020C0001F034F84FF47A73B0FBF3F000F03EFBDE
:10021C00002221464FF0FF3000F0F8FA002010BD0C
:10022C00074A08B51368032043F01003136000F06D
:10023C00DBFA0F20FFF7E2FF03F072FC002008BD91
:10024C0000200240024A136801331360704700BF5C
:10025C0028000020014B1868704700BF28000020C0
:10026C0013B50190FFF7F6FF0446FFF7F3FF019B70
:10027C00001B9842F9D302B010BD0000F7B504463C
:10028C0000260D460196FFF7E5FF236807469A689E
:10029C00D20507D5A36A84F8246043F02003A36237
:1002AC00012083E05A68D60511D4DB6A13F4700F71
:1002BC000DD12268136899072AD4681CFAD0002D36
:1002CC0052D0FFF7C7FFC01B8542F2D24CE0384B2F
:1002DC0002201E6801F080F82368364A1969B6FBC3
:1002EC00F0F00A401ABBD968334A0A40FAB91969C6
:1002FC00324A0A40002A2ED1DA68314B1340002BC7
:10030C0014BF2923142300FB03F6019B9E4228D81B
:10031C0022686FF012031360A36A43F40073A362A4
:10032C00936803F46023B3F5602F31D12EE0196983
:10033C00224A0A401AB9D968214A0A406AB1196995
:10034C00204A0A405AB9DA681E4B1340002B14BFDE
:10035C00FC235423D7E72923D5E75423D3E7FC23E5
:10036C00D1E76B1C0ED045B9A36A032043F00403FC
:10037C00A362002384F8243018E0FFF76BFFC01B46
:10038C008542F1D3019B01330193BEE7E3680BB1C6
:10039C0000200BE0A36A23F48073A362A06A10F41C
:1003AC008050F5D1A36A43F00103A36203B0F0BD02
:1003BC0000000020244992242449920092244912DE
:1003CC0092244900499224000368D86C70470000BD
:1003DC00F7B50023019390F82430012B00F0AE8088
:1003EC00012380F824304B680468062B0D6818D85C
:1003FC00676B4FF4787292FAA2F6B6FA86F6013B66
:10040C0092FAA2F2B2FA82F25E4353434FF01F0EFD
:10041C000EFA06F627EA060605FA03F3334363637E
:10042C0030E00C2B4FF4787216D8276B92FAA2F6A8
:10043C00B6FA86F6073B92FAA2F2B2FA82F25E4361
:10044C005A434FF01F0E0EFA06F627EA060605FA77
:10045C0002F23243226315E0E76A92FAA2F6B6FA88
:10046C0086F60D3B92FAA2F2B2FA82F25E43534345
:10047C004FF01F0E0EFA06F627EA060605FA03F3EE
:10048C003343E362092D4FF038038E6818D9D4F842
:10049C000CE093FAA3F7B7FA87F7A5F10A0193FAE0
:1004AC00A3F3B3FA83F201FB07F35143072707FACF
:1004BC0003F32EEA030306FA01F21A43E26013E097
:1004CC00276993FAA3F1B1FA81F193FAA3F3B3FA82
:1004DC0083F369436B43072202FA01F127EA010116
:1004EC0006FA03F20A432261A5F11003012B01D98C
:1004FC0000231EE0134B9C4216D1A3681B02F7D4B9
:10050C00A368102D43F40003A360F1D10E4B0F4AE6
:10051C001B68B3FBF2F20A2353430193019B002B9C
:10052C00E6D0019B013BF8E7836A43F0200383622A
:10053C000123002280F82420184600E0022003B09A
:10054C00F0BD00BF002401400000002040420F001D
:10055C0073B500230193036804469A68D20701D54A
:10056C00002026E09A6842F001029A60124B134A6E
:10057C001B68B3FBF2F30193019B13B1019B013B8D
:10058C00F9E7FFF767FE064623689B6813F0010541
:10059C00E6D1FFF75FFE801B0228F5D9A36A84F829
:1005AC00245043F01003A362E36A012043F00103DB
:1005BC00E36202B070BD00BF0000002040420F009B
:1005CC0090F8243010B5012B04463BD0012380F861
:1005DC002430FFF7BDFF002830D1A36A002023F49C
:1005EC00407323F0010343F48073A362A36A23F4E2
:1005FC008013A36223685A6884F82400520541BF13
:10060C00A26A22F4405242F48052A262A26A12F40C
:10061C0080521CBFE26A22F00602E2626FF0020214
:10062C001A609A6802F46022B2F5602F9A680CBFC7
:10063C0042F4A00242F480129A6010BD002384F8A8
:10064C00243010BD022010BD38B5036804469A68EA
:10065C00D20701D4002038BD9A6822F001029A60BA
:10066C00FFF7F8FD054623689B68DB07F2D5FFF71B
:10067C00F1FD401B0228F6D9A36A012043F01003B8
:10068C00A362E36A43F00103E36238BD38B5044664
:10069C00002800F08880836A23B9C36280F8243074
:1006AC0002F01AFB2046FFF7CFFFA36A13F0100FDE
:1006BC00A36A75D1002873D123F4885323F0020365
:1006CC0043F00203A362E068022393FAA3F3B3FAA4
:1006DC0083F36168E26900FA03F30A43A1681343E8
:1006EC00B1F5807F05D0012914BF00224FF4807230
:1006FC0000E00A466569012D15D160B94FF46040E0
:10070C0090FAA0F0B0FA80F5A06942F400620138CA
:10071C00A840024307E0A06A40F02000A062E06A13
:10072C0040F00100E0622068B1F5807F456825F457
:10073C00694542EA0502426085681C4A02EA0502E4
:10074C0042EA0302826001D001290AD14FF47002FF
:10075C0092FAA2F2B2FA82F22169013901FA02F29A
:10076C0000E00022C16A21F470010A43C262816870
:10077C000F4A0A40934208D10020E062A36A23F09A
:10078C00030343F00103A36238BDA36A23F01203F1
:10079C0043F01003A362E36A43F00103E36202E057
:1007AC0043F01003A362012038BD00BFFDF7E1FF49
:1007BC00FE0E1FFF90F8243010B5012B044611D00B
:1007CC00012380F82430FFF73FFF38B9A36A23F4E4
:1007DC00885323F0010343F00103A362002384F840
:1007EC00243010BD022010BD074A0002D36800F46B
:1007FC00E06023F4E0631B041B0C43F0BF6343F481
:10080C0000330343D360704700ED00E0174B30B565
:10081C00DB68C3F30223C3F107041D1D042C28BF9E
:10082C000424062D4FF0010505FA04F404F1FF34FD
:10083C008CBF033B00230C409C4005FA03F3013BA7
:10084C001A40002842EA04024FEA0212AFBF00F13C
:10085C006040074B00F00F00D2B2A5BFD2B200F53A
:10086C0061401A5480F8002330BD00BF00ED00E059
:10087C0014ED00E04209012300F01F0003FA00F020
:10088C00014B43F82200704700E100E00138B0F161
:10089C00807F0AD2064B074AF021586082F8231059
:1008AC000020072298601A6070470120704700BF33
:1008BC0010E000E000ED00E0044B04281A680CBFC7
:1008CC0042F0040222F004021A60704710E000E0CB
:1008DC002DE9F74F00242646624BDFF894E1DFF850
:1008EC0094C101220D68B24032EA050540F0B38094
:1008FC004D68122D28D00ED8022D22D004D835B335
:10090C00012D2DD1CC682BE0032D18D0112D27D122
:10091C00CC68043424E0544FBD4218D006D8DFF81C
:10092C005881454513D008F5803805E075450ED043
:10093C0065450CD0DFF84481454511D107E0002412
:10094C000EE0CC6808340BE0CC680C3408E08C6802
:10095C002CB1012C0CBF02614261082400E004247C
:10096C00FF2A97BF8346A6F10805D0F80090B50082
:10097C0084BFD0F80490AD004FF00F0808FA05FAC8
:10098C0029EA0A0904FA05F588BF00F1040B49EAC3
:10099C000505CBF80050D1F8049019F0805F5AD0BF
:1009AC00324D324FAD6906F0030A45F00105BD61C9
:1009BC00BD694FEA8A0A05F001050195019D26F0F3
:1009CC00030505F1804505F58035D5F808B0A7F588
:1009DC00843708FA0AF8B8422BEA080810D007F551
:1009EC008067B8420FD007F58067B8420ED007F584
:1009FC008067B8420CBF4FF0030B4FF0040B07E0BD
:100A0C004FF0000B04E04FF0010B01E04FF0020B34
:100A1C000BFA0AFA4AEA080AC5F808A01D6819F484
:100A2C00803F14BF154395431D605D6819F4003F6A
:100A3C0014BF154395435D609D6819F4801F14BF66
:100A4C00154395439D60DD6819F4001F14BF2A43BC
:100A5C0025EA0202DA600136102E7FF442AF03B0B1
:100A6C00BDE8F08F0004014000002110001002408E
:100A7C000000311000003210000011100000221094
:100A8C0002B909040161704770B5044600285FD0B3
:100A9C0090F8353003F0FF021BB980F8342002F0D7
:100AAC0081FB2268242384F835301368294D23F008
:100ABC000103136000F0E0FB27496368B0FBF1F120
:100ACC00AB4222682E4688BF4FF49675516082BFA8
:100ADC0069434FF47A75B1FBF5F1B34201F10101B1
:100AEC00116208D85B00B0FBF3F0C0F30B03042BCE
:100AFC0038BF042013E0A16831B903EB4303B0FB0A
:100B0C00F3F040F4004005E019214B43B0FBF3F047
:100B1C0040F44040C0F30B03002B08BF0120E169F7
:100B2C00236AD0610B4313602169E36800200B43F7
:100B3C0093606169A3690B43D360136843F00103AD
:100B4C0013602023A06384F8353084F8360070BD20
:100B5C00012070BDA086010040420F00704710B507
:100B6C00044630B30368DA68D20702D5DB689B070A
:100B7C001FD4637B03F0FF021BB922732046FFF7DF
:100B8C00EDFF45F2555202236373236800201A606F
:100B9C005A6822F0070162680A435A609A68A16891
:100BAC0022F47F6222F00F020A439A6001236373DE
:100BBC0010BD012010BD000003682DE9F743DC07D0
:100BCC00054603D42B68980773D4F2E0B94C6368DC
:100BDC0003F00C03042B07D0636803F00C03082B01
:100BEC0016D16368D90313D54FF4003393FAA3F2EB
:100BFC00226893FAA3F3B3FA83F303F01F0322FAE8
:100C0C0003F3DA07DED56B68002BDBD101202DE274
:100C1C006B68B3F5803F15D06BB923684FF4003681
:100C2C0023F480332360236823F480232360FFF7AD
:100C3C0011FB07462FE0B3F5A02F236806D143F430
:100C4C0080232360236843F4803305E023F480334E
:100C5C002360236823F480232360FFF7FBFA074605
:100C6C004FF4003696FAA6F3226896FAA6F3B3FA76
:100C7C0083F303F01F0322FA03F3DB07A2D4FFF77D
:100C8C00E9FAC01B6428EDD90320EFE1FFF7E2FA83
:100C9C00C01B6428F8D896FAA6F3226896FAA6F335
:100CAC00B3FA83F303F01F0322FA03F3D807EDD44E
:100CBC0088E7804C636813F00C0F07D0636803F06F
:100CCC000C03082B21D16368D9031ED4022393FA99
:100CDC00A3F2226893FAA3F3B3FA83F303F01F038E
:100CEC0022FA03F3DA0702D52B69012B8ED1236884
:100CFC00F82292FAA2F2B2FA82F2696923F0F803AE
:100D0C0001FA02F21343236053E02A6901237AB3F8
:100D1C0093FAA3F2B2FA82F2920002F1844202F543
:100D2C0084021360FFF796FA0746022696FAA6F39A
:100D3C006048226896FAA6F3B3FA83F303F01F0314
:100D4C0022FA03F3DB0705D4FFF784FAC01B022851
:100D5C00ECD999E70368F82292FAA2F2B2FA82F27D
:100D6C00696923F0F80301FA02F21343036020E0EF
:100D7C0093FAA3F3B3FA83F39B0003F1844303F5D3
:100D8C0084031A60FFF766FA0746022696FAA6F362
:100D9C00226896FAA6F3B3FA83F303F01F0322FA40
:100DAC0003F3D90705D5FFF755FAC01B0228EDD977
:100DBC006AE72B681A0746D5AA693E4C01233E49BF
:100DCC0012B393FAA3F2B2FA82F241F82230FFF78F
:100DDC0041FA0746022696FAA6F396FAA6F3626A39
:100DEC0096FAA6F3B3FA83F303F01F0322FA03F384
:100DFC00DB0705D4FFF72EFAC01B0228EBD943E71B
:100E0C000120FFF72DFA1EE093FAA3F3B3FA83F354
:100E1C0041F82320FFF71EFA0746022696FAA6F39E
:100E2C0096FAA6F3626A96FAA6F3B3FA83F303F082
:100E3C001F0322FA03F3D80705D5FFF70BFAC01BE3
:100E4C000228EBD920E72B68590704D4EA69002A59
:100E5C0040F08180D8E0174C184EE36943F0805382
:100E6C00E361E36903F080530193019B336843F41E
:100E7C0080733360FFF7EEF907463368DA0505D463
:100E8C00FFF7E8F9C01B6428F7D9FDE6EB68012BE6
:100E9C001CD0ABB9236A022623F001032362236A18
:100EAC00374623F004032362FFF7D4F941F2883963
:100EBC00804648E00010024080044242007000402E
:100ECC00052B236A06D143F004032362236A43F003
:100EDC00010305E023F001032362236A23F00403DA
:100EEC002362FFF7B7F902268146B04641F28837F4
:100EFC0096FAA6F396FAA6F30BB1226A00E0626AA0
:100F0C0098FAA8F3B3FA83F303F01F0322FA03F35E
:100F1C00DB079BD4FFF79EF9C9EB0000B842E7D979
:100F2C00B2E6626A97FAA7F3B3FA83F303F01F03EE
:100F3C0022FA03F3D80789D5FFF78CF9C8EB000028
:100F4C0048453FF6A1AE96FAA6F396FAA6F3002B07
:100F5C00E7D0226AE6E7474C636803F00C03082BE2
:100F6C003FF454AE022A4FF080735CD193FAA3F392
:100F7C00B3FA83F39B0003F1844303F5840300224B
:100F8C001A60FFF767F980464FF0007696FAA6F3E1
:100F9C00384F226896FAA6F3B3FA83F303F01F03D3
:100FAC0022FA03F3D90731D42E6AB6F5803F05D166
:100FBC00796821F40030A9680143796063686A6A32
:100FCC0023F474133243134363604FF0807393FA2A
:100FDC00A3F3B3FA83F39B0003F1844303F5840377
:100FEC0001221A60FFF736F906464FF0007595FAA4
:100FFC00A5F3226895FAA5F3B3FA83F303F01F0364
:10100C0022FA03F3DA0708D500202FE0FFF722F9C4
:10101C00C8EB00000228B9D936E6FFF71BF9801B94
:10102C000228E4D930E693FAA3F3B3FA83F39B00D6
:10103C0003F1844303F5840300221A60FFF70AF9D5
:10104C0006464FF0007595FAA5F3226895FAA5F3BC
:10105C00B3FA83F303F01F0322FA03F3DB07D3D5B0
:10106C00FFF7F8F8801B0228EDD90DE603B0BDE8B8
:10107C00F08300BF001002401F4B70B503F1100548
:10108C002E4686B002AC224618685968083303C253
:10109C00AB421446F7D13388184CADF80430606875
:1010AC0000F00C03082B24D14FF4701393FAA3F324
:1010BC00B3FA83F300F4701222FA03F306AA134472
:1010CC0013F8101CC30311D562684FF4003393FA64
:1010DC00A3F3B3FA83F002F40033C34006AA13441B
:1010EC0013F8140C064BB3FBF0F000E00548484332
:1010FC0000E0034806B070BDBC3F00080010024081
:10110C0000127A0000093D00544A2DE9F0411368A1
:10111C00064603F007038B420D460AD331688C0751
:10112C0014D54F48436823F0F002B368134343606F
:10113C000CE0136823F007030B431360136803F0F0
:10114C0007039942EAD00120BDE8F081C80706D414
:10115C00424A136803F007039D424AD353E0726876
:10116C003F4C012A02D14FF4003304E0022A0CBF99
:10117C004FF00073022393FAA3F1216893FAA3F3BF
:10118C00B3FA83F303F01F0321FA03F3D907DAD57B
:10119C00636841F2883823F003031A436260FFF757
:1011AC0059F873680746012B0CD1636803F00C03E4
:1011BC00042BCDD0FFF74EF8C01B4045F5D90320CA
:1011CC00BDE8F081022B0FD1636803F00C03082BF0
:1011DC00BED0FFF73FF8C01B4045F5D9EFE7FFF74E
:1011EC0039F8C01B4045EAD8636813F00C0FF6D1F0
:1011FC00AEE7136823F007032B431360136803F067
:10120C0007039D429FD13168154C11F0040F05D096
:10121C00636823F4E062F368134363600B0706D53D
:10122C006368326923F4605343EAC2036360FFF7D7
:10123C0023FF6368F02292FAA2F2B2FA82F203F070
:10124C00F003D340074AD35CD840074B18600F20FB
:10125C00FEF7D4FF0020BDE8F08100BF0020024063
:10126C00001002402840000800000020014B1868C4
:10127C00704700BF00000020084B4FF4E0625B6831
:10128C0092FAA2F2B2FA82F203F4E063D340044A77
:10129C00D35C044A1068D840704700BF001002406D
:1012AC003840000800000020084B4FF460525B6887
:1012BC0092FAA2F2B2FA82F203F46053D340044AD7
:1012CC00D35C044A1068D840704700BF001002403D
:1012DC00384000080000002003682DE9F74305465C
:1012EC00D80764D5394C3A4EE36943F08053E36137
:1012FC00E36903F080530193019B336843F48073DB
:10130C003360FEF7A7FF07463368D90506D4FEF70E
:10131C00A1FFC01B6428F7D9032054E0236A2B4893
:10132C0013F4407306D1236A23F440726B681343A1
:10133C0023623CE06A6802F440729342F3D0016A83
:10134C004FF4803321F4407793FAA3F2B2FA82F28D
:10135C00204E4FF0010E46F822E093FAA3F3B3FAB5
:10136C0083F3002246F82320CA070762DBD5FEF779
:10137C0071FF02268046374641F2883996FAA6F369
:10138C0096FAA6F30BB1226A00E0626A97FAA7F309
:10139C00B3FA83F303F01F0322FA03F3DB07C2D47F
:1013AC00FEF758FFC8EB00004845E7D9B4E72868BA
:1013BC0010F0020007D0054900204B6823F440428E
:1013CC00AB6813434B6003B0BDE8F08300100240E0
:1013DC000070004000044242012808B513D00228D6
:1013EC0032D1FFF761FF194B5A684FF4804393FADF
:1013FC00A3F3B3FA83F102F44043CB4001335B0017
:10140C00B0FBF3F008BD40F20231104A136A1940E8
:10141C00B1F5817F15D003F44073B3F5007F05D18E
:10142C00536A49F6404013F0020F07E0B3F5407FD2
:10143C000AD14FF22440136813F4003F08BF002078
:10144C0008BD4FF4004008BD002008BD001002404C
:10145C002DE9F047066881683369814623F44052D0
:10146C00C3681924134333610369F2681943436950
:10147C00194322F4B05323F00C030B43F36073694C
:10148C0023F440728369134373613D4B9E4231D107
:10149C00FFF70AFF6043D9F804704FF06408BF00EF
:1014AC00B0FBF7F7FFF700FF6043D9F80450B7FB28
:1014BC00F8F7AD00B0FBF5F5FFF7F6FE6043D9F891
:1014CC0004303F019B00B0FBF3F0B0FBF8F008FBDD
:1014DC001055FFF7E9FE2D013235B5FBF8F56043E9
:1014EC00D9F8041005F0F0058900B0FBF1FAFFF70C
:1014FC00DBFE30E0FFF7C0FE6043D9F804704FF01C
:10150C006408BF00B0FBF7F7FFF7B6FE6043D9F8ED
:10151C000450B7FBF8F7AD00B0FBF5F5FFF7ACFEE8
:10152C006043D9F804303F019B00B0FBF3F0B0FBF3
:10153C00F8F008FB1055FFF79FFE2D013235B5FB77
:10154C00F8F56043D9F8041005F0F0058900B0FBFC
:10155C00F1FAFFF791FE4443D9F804008000B4FB84
:10156C00F0F0B0FBF8F008FB10A212013232B2FB23
:10157C00F8F303F00F032B441F44B760BDE8F0876A
:10158C0000380140F8B504460E461546FEF762FEDB
:10159C0007462268136836EA030321D06B1CF9D086
:1015AC00C5B923680320DA6822F08002DA60DA68B1
:1015BC0022F02002DA60DA6822F48072DA605A696A
:1015CC0022F001025A61012384F83930002384F897
:1015DC003830F8BDFEF73EFEC01B8542D9D2E0E79D
:1015EC000020F8BD10B5044630B390F8393003F044
:1015FC00FF021BB980F8382002F01AFC2268022383
:10160C0084F83930D368204623F40053D360FFF7B5
:10161C001FFF236800201A6922F490421A615A694C
:10162C0022F02A025A61DA6842F40052DA6001238D
:10163C00E06384F8393010BD012010BD70B50D4643
:10164C0090F839100446C9B201291E4601D022294E
:10165C004ED1002D4AD0002A48D094F83830012BB6
:10166C0046D0012384F838300023E36394F83930F2
:10167C00A284222B0CBF3223122384F83930E2844B
:10168C00E28C02B3A368013AB3F5805FE2844FF0B9
:10169C008001324620460DD1FFF774FF08B10320BC
:1016AC0070BD2B882268C3F308035360236943B9C8
:1016BC000235E5E7FFF766FF0028F0D123682A78AA
:1016CC005A600135DCE7324640212046FFF75AFFCD
:1016DC000028E4D194F83930322B0CBF222301239B
:1016EC0084F83930002384F8383070BD012070BD87
:1016FC00022070BD90F83930DBB2012B01D0122BD7
:10170C0028D129B322B390F83830012B22D00123F1
:10171C0080F838300023C3638285C28590F8392065
:10172C0080F83830122A03680CBF3222222280F84B
:10173C003920DA68816242F48072DA605A690020DA
:10174C0042F001025A61DA6842F02002DA60704716
:10175C00012070470220704770477047026813B52C
:10176C0011680446C907D36805D5DB0542BFC36BB6
:10177C0043F00103C36311685369880703F0010345
:10178C0004D51BB1E16B41F00401E1631168490719
:10179C0004D51BB1E16B41F00201E163116808074C
:1017AC0004D51BB1E36B43F00803E3631168D36802
:1017BC00890642D5980640D594F8393003F0EF03EA
:1017CC00222B3AD1A3682169B3F5805FA36A0BD1B0
:1017DC00526821B9C2F3080223F8022B02E0D2B2FC
:1017EC0023F8012BA3620AE019B9591CA1625268B3
:1017FC0004E05268591CA16202F07F021A70E38D5A
:10180C00013B9BB2E385C3B923682046DA6822F01A
:10181C002002DA6094F83920322A17BFDA681223D2
:10182C0022F48072DA601FBF5A6922F001025A61F9
:10183C00012384F8393002F04DF923681968DA680D
:10184C00090628D5100626D594F8392002F0DF02B7
:10185C00122A20D1A268B2F5805F226A0AD11188BF
:10186C00C1F308015960216909B9023200E0013263
:10187C00226203E0511C216212785A60E28C013A18
:10188C0092B2E2843AB9DA6822F08002DA60DA685D
:10189C0042F04002DA601968DA68490610D552063F
:1018AC000ED5DA68204622F04002DA6094F839301E
:1018BC00322B0CBF2223012384F83930FFF74CFF65
:1018CC00E36B5BB1236820461A6801925B68019355
:1018DC00019B012384F83930FFF73FFF02B010BDA4
:1018EC0008B500F095FE002008BD70B5B0F90840B1
:1018FC000025842C08BF2C4686B0028A18BF0334FE
:10190C000B4690E8420005A80190039502950094BF
:10191C00304600F09DFD01280CBF0598002006B054
:10192C0070BD08B5002808BF012000F0A3FF0020FF
:10193C0008BD012000F01CBC002203C800F066BBEF
:10194C001FB5002401910394A24208BF0122EFF3BA
:10195C00058383B1234603AA01A900F02EFC0128BC
:10196C0001D0FF200DE0039B53B1074B4FF0805289
:10197C001A60204605E001A900F06EFB0128F0D1A9
:10198C00002004B010BD00BF04ED00E0F0B500264F
:10199C0085B00446174608460391029601AD09B975
:1019AC0080231FE00096EFF3058383B16A4602A9FA
:1019BC0000F0DEFC012804BF10230193009B18BF2C
:1019CC00019683B10B4B4FF080521A600BE002A9C9
:1019DC0000F038FC012801D1102303E0002F0CBFCC
:1019EC0000234023019395E8070084E80700204674
:1019FC0005B0F0BD04ED00E008B501F09DF801283C
:101A0C0003D0BDE8084000F0E7B808BD00F10803BA
:101A1C0043604FF0FF32C3600361002382600360B8
:101A2C00704700230361704743689A684B608A6073
:101A3C009A685160996003680861013303607047CC
:101A4C000A6830B5531C01D1036907E000F10803A3
:101A5C005C682568AA4201D32346F9E75A684A60B4
:101A6C0091608B605960036808610133036030BD7D
:101A7C004168826803698A6082685160596888424B
:101A8C0008BF5A600022026118680138186070475C
:101A9C0006480068006880F3088862B661B6BFF338
:101AAC004F8FBFF36F8F00DF00BF000008ED00E029
:101ABC004FF0807300E90A00034B40F8202C40F8EB
:101ACC000C3C4038704700BF251B0008074B1968B9
:101ADC000868B0E8F00F80F30988BFF36F8F4FF000
:101AEC00000080F311884EF00D0E7047140D00208D
:101AFC00044B4FF080521A60BFF34F8FBFF36F8FC0
:101B0C00704700BF04ED00E0EFF311804FF050017F
:101B1C0081F311887047002008B5054B1B68013311
:101B2C0002D0FFF7F1FFFEE7FFF7EEFFFEE700BF85
:101B3C000400002008B5FFF7E7FF094A13680133DA
:101B4C001360BFF34F8FBFF36F8F012B07D1054B82
:101B5C001B6813F0FF0F02D0FFF7D6FFFEE708BD9E
:101B6C000400002004ED00E080F3118870470000B1
:101B7C0008B5074B186810B9FFF7C6FFFEE7013828
:101B8C00186018B9BDE80840FFF7EEBF08BD00BFEC
:101B9C0004000020EFF30980BFF36F8F0D4B1A6820
:101BAC0020E9F00F10602DE908404FF0500080F351
:101BBC00118800F0C3FE4FF0000080F31188BDE8DF
:101BCC00084019680868B0E8F00F80F30988BFF383
:101BDC006F8F7047140D002008B5FFF795FF00F0CC
:101BEC004FFD18B1044B4FF080521A600020BDE835
:101BFC000840FFF7B9BF00BF04ED00E0064B4FF4FF
:101C0C007A721B68B3FBF2F3044A013B1360044B7A
:101C1C0007221A60704700BF0000002014E000E0AB
:101C2C0010E000E013B51F4B00211A78D2B20192DC
:101C3C00FF221A701B781C4ADBB28DF803309DF81A
:101C4C00033003F050031370184B07221A609DF8F1
:101C5C000300541E000608D59DF8032001215200F4
:101C6C00D2B28DF803202246F1E701B11A601A684E
:101C7C00120202F4E0621A60019B0A4ADBB2137092
:101C8C000B4B1A6842F470021A601A6842F07042E8
:101C9C001A60FFF7B3FF074B00221A60FFF7F8FE3C
:101CAC00FFF73AFF00E400E02C0000203000002099
:101CBC0020ED00E00400002008B5EFF305830F2BA6
:101CCC0008D90A4A9B5C0A4A12789A4202D9FFF751
:101CDC001BFFFEE7074B084A1B68126803F4E0631E
:101CEC00934202D9FFF710FFFEE708BDF0E300E0D6
:101CFC002C0000200CED00E03000002010B50F4B44
:101D0C001A68824201D21346FAE759685C18A0425D
:101D1C0001BF406809181846596041684418A2422E
:101D2C0007D1074C2468A2421FBF546812680919D6
:101D3C0041609842026018BF186010BD3C00002042
:101D4C00380000202DE9F041044600F091FC3C499C
:101D5C003C4D0B680BBB3C4A56071FBFD01D20F0F7
:101D6C00070002F54063024614BF1B1A4FF4406390
:101D7C001344364E083B23F007030020706032609A
:101D8C00586018600B60981A1360314B50601860E3
:101D9C00304B18604FF000432B602F68274240D126
:101DAC00002C3FD004F1080358071CBF23F0070395
:101DBC000833002B33D0274A16689046B34230D8EC
:101DCC00224A15686868834203D809688D4206D197
:101DDC0027E02C68002CF8D02A462546F2E7296823
:101DEC0014681160C21A102A04F1080409D9E81801
:101DFC00410702D0FFF788FEFEE742606B60FFF7F9
:101E0C007DFF13496A680868B31A8342C8F800302A
:101E1C0038BF0B60174300236F602B6002E01C4639
:101E2C0000E0002400F0BEFC0CB901F039F96307A6
:101E3C0002D0FFF769FEFEE72046BDE8F08100BF47
:101E4C0038000020440C0020440000203C000020FE
:101E5C00480C00203400002010B5044610B3124A80
:101E6C0050F8043C1268134202D1FFF74DFEFEE716
:101E7C0050F8081C11B1FFF747FEFEE723EA0203F6
:101E8C0040F8043C00F0F4FB084A54F8041C1368B6
:101E9C00A4F108000B441360FFF730FFBDE81040BD
:101EAC0000F080BC10BD00BF440C002034000020AA
:101EBC0038B51546026C044632B9056845BB406816
:101ECC0000F094FE656024E06DB9806802F00AF8B9
:101EDC00A268236C13446268A360934218D32368EE
:101EEC002846A36015E0C06801F0FCFF236CE26893
:101EFC005B4221681A448A42E2603EBF62689B18CA
:101F0C00E360022D04D1A36B13B1A36B013BA3635C
:101F1C000020A36B0133A36338BD03461A6C10B4C5
:101F2C00084662B1D9685C681144A142D96028BFE7
:101F3C00196810BC28BFD960D96801F0D3BF10BC98
:101F4C00704738B50446FFF7F5FD04F12405A36C82
:101F5C00002B0BDD636A4BB1284600F06DFD08B118
:101F6C0000F0E4FDA36C013BA364F0E74FF0FF33FA
:101F7C00A364FFF7FDFDFFF7DDFD04F11005636CB5
:101F8C00002B0BDD23694BB1284600F055FD08B141
:101F9C0000F0CCFD636C013B6364F0E74FF0FF3362
:101FAC006364BDE83840FFF7E3BD38B50D46044621
:101FBC0010B9FFF7A9FDFEE7FFF7BCFD206CE36B42
:101FCC0022684343D1181B1A13446160E36000215B
:101FDC004FF0FF33A163A2606364A36455B9236916
:101FEC0083B104F1100000F027FD01280AD1FFF79E
:101FFC007FFD07E004F11000FFF708FD04F1240059
:10200C00FFF704FDFFF7B4FD012038BDF8B50D4610
:10201C001746064610B9FFF777FDFEE711B14843A6
:10202C00013000E008465430FFF78CFE044630B116
:10203C000DB9206006E000F15403036002E0FFF7E5
:10204C0063FDFEE7E663256401212046FFF7ADFF43
:10205C0084F850702046F8BD2DE9F04385B08946D0
:10206C0001921F46044610B9FFF74EFDFEE721B959
:10207C00036C13B1FFF748FDFEE7022F05D1E36BAC
:10208C00012B02D0FFF740FDFEE700F055FD10B923
:10209C00019E0EB166E000264FF00008FFF74AFDE6
:1020AC00A26BE36B9A4201D3022F15D13A464946F3
:1020BC002046FFF7FDFE636A43B104F1240000F0F3
:1020CC00BBFC012804D1FFF713FD01E00028FAD175
:1020DC00FFF74EFD012048E0019D1DB9FFF748FDBB
:1020EC00284642E016B902A800F0E2FCFFF740FDDA
:1020FC0000F0BEFAFFF71EFD636C013308BFC4F895
:10210C004480A36C013308BFC4F84880FFF730FD4E
:10211C0001A902A800F0DCFCE8B9FFF70BFDA66BE7
:10212C00E56BFFF725FDAE420FD1019904F11000CC
:10213C0000F050FC2046FFF704FF00F033FB08B121
:10214C000126ABE7FFF7D4FCFAE72046FFF7F9FED0
:10215C0000F028FBF4E72046FFF7F3FE00F022FB2B
:10216C00002002E0FFF7D0FCFEE705B0BDE8F083ED
:10217C0070B506465420FFF7E5FD0446D8B101239F
:10218C000025C3634FF0FF338563456043640560EE
:10219C0083648560C560056480F850601030FFF77B
:1021AC0035FC04F12400FFF731FC2B462A46294666
:1021BC002046FFF751FF204670BD2DE9F0410E4639
:1021CC0090461D46044610B9FFF79EFCFEE721B968
:1021DC00036C13B1FFF798FCFEE7022D05D1E36BFE
:1021EC00012B02D0FFF790FCFEE7FFF765FDFFF730
:1021FC008BFCA26BE36B07469A4201D3022D1AD1DA
:10220C002A4631462046FFF753FEA36C01330DD10D
:10221C00636A73B104F1240000F00EFC48B1B8F10C
:10222C00000F06D00124C8F8004005E0A36C013370
:10223C00A364012400E000243846FFF795FC2046F7
:10224C00BDE8F0812DE9F04385B0884601929946AE
:10225C00044610B9FFF758FCFEE721B9036C13B123
:10226C00FFF752FCFEE700F067FC10B9019E0EB1BF
:10227C0078E000260027FFF75DFCA36B3BB34146DB
:10228C002046E568FFF749FEB9F1000F12D1A36BA8
:10229C00013BA363236813B900F0ECFC6060236975
:1022AC008BB104F1100000F0C7FB01280BD1FFF734
:1022BC001FFC08E0636AE5602BB104F1240000F018
:1022CC00BBFB0028F3D1FFF753FC01204DE0019D2F
:1022DC001DB9FFF74DFC284647E016B902A800F0DF
:1022EC00E7FBFFF745FC00F0C3F9FFF723FC636C39
:1022FC00013308BF6764A36C013308BFA764FFF701
:10230C0037FC01A902A800F0E3FB20BBFFF712FC8D
:10231C00A56BFFF72DFCC5B9236833B9FFF70AFC91
:10232C00606800F019FCFFF723FC019904F124000C
:10233C0000F050FB2046FFF704FE00F033FA08B122
:10234C00012698E7FFF7D4FBFAE72046FFF7F9FDE3
:10235C0000F028FAF4E72046FFF7F3FD00F022FA2C
:10236C00002002E0FFF7D0FBFEE705B0BDE8F083EC
:10237C00F8B50E461746044610B9FFF7C5FBFEE745
:10238C0021B9036C13B1FFF7BFFBFEE7FFF794FC19
:10239C00FFF7BAFBA36B0546CBB131462046FFF7DE
:1023AC00BCFDA36B013BA363636C01330AD12369AE
:1023BC005BB104F1100000F03FFB30B12FB10124F0
:1023CC003C6005E0636C01336364012400E01C464F
:1023DC002846FFF7C9FB2046F8BD0000064A1368E3
:1023EC001968064B11B94FF0FF3203E01268D2683E
:1023FC00D26852681A607047500C0020180D0020EB
:10240C000E4B10B51A68044650600D4A1268904283
:10241C0007D2BDE810400B4A106819680431FFF769
:10242C000FBB094A106819680431FFF709FB074B09
:10243C001A68944238BF1C6010BD00BF140D0020F8
:10244C00200D0020240D0020500C0020180D002021
:10245C002DE9F84F0A9E9A460F461546DDF82C805A
:10246C000C9B814610B9FFF74FFBFEE7062E02D9F5
:10247C00FFF74AFBFEE73BB99000FFF763FC83468E
:10248C00002800F0A68000E09B465C20FFF75AFC79
:10249C00044688B1AD002A46C0F830B0A521584694
:1024AC0001F046FD236B043D1D4425F007057B1E02
:1024BC0004F133020F3705E05846FFF7CDFC88E0F6
:1024CC00BB4206D013F8011F02F8011F197800292E
:1024DC00F6D14FF0000B271D384684F843B0E66266
:1024EC00E664C4F850B0FFF79CFA04F11800FFF74B
:1024FC0098FAC6F10703C4F854B02461A36164626E
:10250C0084F858B0524649462846FFF7D1FA206065
:10251C00B8F1000F01D0C8F80040FFF70BFB2F4AB1
:10252C002F4D1368DFF8DC90013313602B683BBB35
:10253C002C601268012A2BD1984609EB080008F18F
:10254C001408FFF763FAB8F18C0FF6D1DFF8B8A0D6
:10255C00DFF8B8805046FFF759FA4046FFF756FAB5
:10256C002048FFF753FA2048FFF750FA1F48FFF7AF
:10257C004DFA1F4BC3F800A01E4BC3F8008007E0B8
:10258C001D4B1B6823B92B68DB6A9E4228BF2C604D
:10259C001A4A1B49136801331360E26A63640B68BF
:1025AC00012404FA02F0034314200B6000FB029098
:1025BC003946FFF739FAFFF7DBFA0F4B1B682BB1E3
:1025CC002B68DB6A9E4201D9FFF792FA2046BDE8E0
:1025DC00F88F4FF0FF30BDE8F88F00BF400D0020A2
:1025EC00140D0020280D0020000D0020580D002097
:1025FC00500C0020240D0020540C00203C0D002019
:10260C006C0D0020740C00205C0C0020440D00208C
:10261C0030B5002485B003940294019400942346B1
:10262C0080220E490E48FFF713FF012805460ED1F4
:10263C00FFF76AFA0B4B4FF0FF321A600A4B1D6022
:10264C000A4B1C6005B0BDE83040FFF7EBBA10B97F
:10265C00FFF75AFAFEE705B030BD00BF4040000856
:10266C00E1280008180D0020540C0020200D00203B
:10267C00024A136801331360704700BF1C0D002021
:10268C003D4B2DE9F74F1B68002B36D13B4B1A689D
:10269C0001321A601D688DB9394B1A68126812B173
:1026AC00FFF732FAFEE7374A1968106818601160B4
:1026BC00354A136801331360FFF790FE334C4FF02B
:1026CC00000B236801949D42314E324F0BD3DFF83F
:1026DC00B080DFF8CC90D8F800201268A2B9019B2A
:1026EC004FF0FF321A603A68D16A14224A43B2584A
:1026FC00022A28BF4FF0010B34E0274A4FF0000BA1
:10270C001368013313602DE0D8F80020D268D46828
:10271C0061688D4202D2019B1960E4E704F1040A5E
:10272C005046FFF7A5F9A16A19B104F11800FFF79B
:10273C009FF9E06AD9F80010012303FA00FE4EEA73
:10274C0001014FF0140EC9F800100EFB0060514649
:10275C00FFF76AF93868E16AC26A914228BF4FF004
:10276C00010BB8E70D4A1268002A18BF4FF0010B95
:10277C00584603B0BDE8F08F1C0D0020200D002042
:10278C00500C0020240D00204C0C0020180D0020B3
:10279C00740C0020140D0020700C0020700D002013
:1027AC006C0D00202DE9F8432A4C236813B9FFF770
:1027BC00ABF9FEE7FFF7BEF92368013B2360236802
:1027CC000BB1002441E0244B1B68002BF9D0234DA6
:1027DC00234EDFF89C802B6803B3EB680127DC6881
:1027EC0004F1040904F11800FFF742F94846FFF719
:1027FC003FF9E26A336807FA02F114200B4300FB3D
:10280C00028049463360FFF70FF9164BE26A1B68EA
:10281C00DB6A9A42DFD3144B1F60DAE7134C236850
:10282C0033B9114B1C68012CCBD1FFF761F90CE0CB
:10283C000D4D01262368002BF3D0FFF721FF00B1CB
:10284C002E602368013B2360F4E7FFF791F92046E3
:10285C00BDE8F8831C0D0020400D0020280D002041
:10286C006C0D0020140D0020700D0020700C002049
:10287C00740C002038B518B9BDE83840FFF738B9EA
:10288C00104B1B6813B1FFF73FF9FEE7FFF7F0FEA3
:10289C000D4B0E4D1B68C41828680430FFF7E8F880
:1028AC0040B92B680A49D86A0A680123834022EA96
:1028BC0003030B602046FFF7A3FDFFF773FF00280F
:1028CC00DAD038BD1C0D0020200D0020140D002086
:1028DC006C0D0020154D80B52E46154F2B68F3B1AD
:1028EC00FFF7C6FE3C68FFF75DFF002CF6D0FFF744
:1028FC0021F90F4BDB68DC68201DFFF7B9F80D4A96
:10290C001368013B13603368013B3360FFF730F908
:10291C00206BFFF7A1FA2046FFF79EFADEE7064B85
:10292C001B68012BD9D9FFF7E3F8D6E7580C002028
:10293C00000D0020400D0020740C002038B5204BF9
:10294C001A68204B12B101221A6038BD1E4C1A6055
:10295C0023681B6B1A68B2F1A53F0BD15A68B2F110
:10296C00A53F07D19A68B2F1A53F03D1DB68B3F15B
:10297C00A53F04D020682168343100F08BFB134B49
:10298C001B68B3FA83F3DBB2C3F11F0314225A435F
:10299C000F498D58881815B9FFF7B6F8FEE745684A
:1029AC0008326D680A44954208BF6A68456008BFE2
:1029BC004260142202FB03135B68DB68236038BDA2
:1029CC001C0D0020700D0020140D00206C0D00203B
:1029DC00740C002038B50D4610B9FFF795F8FEE7DA
:1029EC00114C21681831FFF72BF820680430FFF7E1
:1029FC003FF840B923680D49D86A0A68012383401F
:102A0C0022EA03030B606B1C06D1216808480431D1
:102A1C00BDE83840FFF708B8064B18682844BDE8F5
:102A2C003840FFF7EDBC00BF140D00206C0D0020EA
:102A3C00580D0020200D0020C36870B5DC6814B957
:102A4C00FFF762F8FEE704F118052846FFF710F8C7
:102A5C00114B1B6883B9261D3046FFF709F80F4947
:102A6C00E56A0A680123AB4013430B600C4B14203E
:102A7C00314600FB053001E029460A48FEF7D4FF39
:102A8C00094BE26A1B68DB6A9A4283BF074B012041
:102A9C001860002070BD00BF1C0D00206C0D0020C4
:102AAC00740C0020280D0020140D0020700D002047
:102ABC0008B510B9FFF728F8FEE7034B1B68036055
:102ACC00024B1B68436008BD4C0C0020200D0020FD
:102ADC0038B50D46044610B9FFF716F8FEE711B9E4
:102AEC00FFF712F8FEE7FFF725F80E4B19682B6875
:102AFC005A1C10D00C4A206812689042626801D0AF
:102B0C0091420AD2881A834207D9521A13442B6075
:102B1C002046FFF7CDFF002400E00124FFF728F842
:102B2C00204638BD200D00204C0C0020014B01220A
:102B3C001A607047700D0020054B1B6833B1054BB4
:102B4C001B68002B0CBF022000207047012070472F
:102B5C00540C00201C0D00202DE9F04104460028E7
:102B6C003BD01F4DC36A2A68D26A934235D2826920
:102B7C001C4E002AA8BF2A684FF01407A8BFD26ABF
:102B8C0007FB0363A4BFC2F10702826142699A4248
:102B9C0020D100F104084046FEF76AFF124B48B9F9
:102BAC00E06A4743F2592AB919680122824021EAA6
:102BBC0002021A602A680120D26A4146E2621C684D
:102BCC00904020431860142000FB0260BDE8F041E7
:102BDC00FEF72ABF2B68DB6AC362BDE8F08100BF39
:102BEC00140D0020740C00206C0D0020F8B5044668
:102BFC0008B90020F8BD1C4B1B68984202D0FEF7A8
:102C0C0083FFFEE7036D13B9FEF77EFFFEE7C16A93
:102C1C00C26C013B91420365EBD0002BE9D1051D41
:102C2C002846FEF725FF114E114A50B9E76A1421C8
:102C3C00794373582BB910680123BB4020EA030376
:102C4C001360E36C1068C3F10701E362A161012416
:102C5C0004FA03F108431060142000FB03602946BA
:102C6C00FEF7E2FE2046F8BD140D0020740C002087
:102C7C006C0D0020044B1A681AB119680A6D0132E8
:102C8C000A651868704700BF140D00201FB5104866
:102C9C00104B4FF460220360012400238360C36057
:102CAC004361C26143600461FDF7F0FC08B100F0C0
:102CBC000BFB0823019301A90023054802940393FD
:102CCC00FDF786FB08B100F0FFFA04B010BD00BFA1
:102CDC00CC0D0020002401407FB502680B4B9A42BA
:102CEC0011D103F56C439A6902A942F400729A61FE
:102CFC009B69074803F400730193019B0323029320
:102D0C000393FDF7E5FD07B05DF804FB00240140DB
:102D1C00000C014038B50B4C2046FDF751FC4FF42C
:102D2C00FA712046FDF7AAFA2046FDF74DFB054641
:102D3C002046FDF73FFDA9B20348BDE8384001F03D
:102D4C001DB800BFCC0D0020454000082DE9F04710
:102D5C000C462E218146154601F0F2F820B9484662
:102D6C00FDF7F8F9064601E0C9EB00064FF018082C
:102D7C0008FB054825460027444510D0D4F800A090
:102D8C0032465146484601F0F1F830B95046FDF74D
:102D9C00E1F986420BD0254601371834ECE7012FB8
:102DAC0008D0064801F00EF80020BDE8F087204658
:102DBC00BDE8F0872846BDE8F08700BF5640000804
:102DCC000349044B044A5B1ADB105A43FFF7BEBF9E
:102DDC0098420008B0420008ABAAAAAA10B5044653
:102DEC00026901680A4800F0C9FF2168094800F02F
:102DFC00C5FF606920B9084800F0E4FF012010BD50
:102E0C0000F0BCFF0A2000F079FA002010BD00BFD2
:102E1C00714000087A400008854000082DE9F04F09
:102E2C0083B000AFD7F830A00646BAF1010F0D46BB
:102E3C0005D0D7F8349000244FF0010875E08B00D2
:102E4C000A3323F00703C7F804D0ADEB030DE846B3
:102E5C0001F1FF3A002318219D4201FB036220DDA2
:102E6C0048F823200133F7E700264446B346D4F84C
:102E7C00009054F8042FD9F8000011683A60FDF75F
:102E8C005FF90028C8BF3A680BF1010BC2BF44F8C8
:102E9C00042CC4F800900136D345E8D126B10AF1D0
:102EAC00FF3ABAF1000FDFDC002606E0264800F0FE
:102EBC0065FF504600F062FF0136B54223DD58F83D
:102ECC0026B0DBF810A000F08DFA0446E8B9BAF190
:102EDC00000FF1D0DBF800904846FDF73BF90728CE
:102EEC00D8BFC0F1080409EB000BD94504D019F880
:102EFC00010B00F003FAF8E714F1FF34D6D32020CD
:102F0C0000F0FCF9F8E7002000E00120D7F804D02D
:102F1C0016E02A46314659F8040FFFF717FF38B16F
:102F2C00FFF75CFF044308F10108D045F1DB06E034
:102F3C00D9F80010054800F021FF0124F3E72046E2
:102F4C000C37BD46BDE8F08FA5400008A84000082E
:102F5C0037B5074D074C8DE80C00641B0B46064932
:102F6C00E410024661432846FFF758FF03B030BD1A
:102F7C0098420008B0420008ABAAAAAA08B50120E2
:102F8C00FEF7CFFCFBE708B54FF47A70FEF7C9FCEF
:102F9C00FAE7000010B5002414F0010218BF01225A
:102FAC0020210748FDF76CFD632C9ABF0134E4B275
:102FBC000024FFF7AFFE4FF47A70FEF7B2FCEBE79C
:102FCC00000C014008B5012204490548FEF792FBAC
:102FDC0000F064FD0A20FEF7A4FCF9E7340E002093
:102FEC003C1400202DE9F04198B00027254C18A87E
:102FFC0040F85C7DFEF79DFC2646234B04AD186023
:10300C000FCE0FC53368394604A82B60FEF76DFC54
:10301C00DFF87C8009AD04F11406C8F800000FCE6F
:10302C000FC53368394609A82B60FEF75EFC0EAD60
:10303C0004F12806C8F800000FCE0FC533683946D6
:10304C000EA82B60FEF751FC13AD04F13C06C8F83A
:10305C0000000FCE0FC53368394613A82B60FEF75E
:10306C0044FC503402ABC8F8000094E8030083E839
:10307C00030039461846FEF75FFC044B186018B085
:10308C00BDE8F081D03F0008380E0020300E002043
:10309C002C0E0020014800F071BE00BF89410008D1
:1030AC0008B5044800F08EFEBDE80840024800F068
:1030BC0089BE00BF9C410008BE410008264B2DE98B
:1030CC00F0439A6989B042F020029A619A69234DC3
:1030DC0002F020020192019A9A69002442F0040243
:1030EC009A619A6904A902F004020292029A9A69FE
:1030FC00284642F008029A619B694FF4006803F07D
:10310C0008030393039BFF2304934FF0010902264A
:10311C0005940694FDF7DCFB04A928460796CDF828
:10312C001080CDF81490FDF7D3FB07960C4E782742
:10313C0004A930460497CDF81490FDF7C9FB22463C
:10314C0041462846FDF79CFC224639463046FDF7A1
:10315C0097FC09B0BDE8F083001002400008014064
:10316C00000C014008B50C480C4BDFF834E04FF470
:10317C00804280E808400261002340228360C360E3
:10318C0043618361C2610362FDF77EFC18B1BDE847
:10319C00084000F099B808BD3C0E002000540040D7
:1031AC00801A06007FB502680F4B9A4219D14FF472
:1031BC00407302931223039302A903230B48059334
:1031CC00FDF786FB0A4A536843F002035360094B30
:1031DC00DA6942F40012DA61DB6903F4001301933B
:1031EC00019B07B05DF804FB00540040000C01404B
:1031FC00000001400010024008B540F6FF7306487D
:10320C000649002280E80E00FDF7A9FC18B1BDE8C4
:10321C00084000F059B808BD780E0020003000407E
:10322C0070B5092392B008934FF4803309934FF48F
:10323C00003201260224109308A84FF4E0130A92DE
:10324C000E960F941193FDF7B7FC00B1FEE70F2516
:10325C00059006900790314603A803950494FDF75A
:10326C0053FF00B1FEE74FF480436846009402938D
:10327C00FEF732F8044600B1FEE7FDF7F7FF4FF416
:10328C007A73B0FBF3F0FDF701FB0420FDF714FBA0
:10329C00224629464FF0FF30FDF7B8FA12B070BD48
:1032AC0008B5FCF7BDFFFFF7BBFFFFF707FFFFF704
:1032BC00EDFCFFF7A1FF00F09FFDFFF753FFFFF7B9
:1032CC0091FEFEF70DFBFEE7FEE7000030B5094B63
:1032DC0085B0196868460022FEF758FB9DE8070088
:1032EC00054DA0F1100385E807005842584105B080
:1032FC0030BD00BF300E00203014002007B502A9ED
:10330C0001F8010D0A2301220248FEF797F903B0D8
:10331C005DF804FB3C14002070B50C460646FCF727
:10332C0019FFA042054607DA241A14F1FF3404D31E
:10333C002020FFF7E3FFF8E725463544AE4204D0E2
:10334C0016F8010BFFF7DAFFF8E770BDF8B5069E2B
:10335C0015460746079A1C6811B92868A04225D162
:10336C00013A944204D9BDE8F8400720FFF7C6BFE4
:10337C0001341C60D1B12968641A012C05D9481C90
:10338C00621E3144304400F0B8FD2B682146F754DE
:10339C0028683044FFF7C0FF2B6801332B60013CD9
:1033AC0003D00820FFF7AAFFF9E7F8BD2B6801212D
:1033BC00F75428683044FFF7AFFF2B6801332B60BC
:1033CC00F8BD000008B5FFF781FF18B90A20FEF719
:1033DC00A8FAF8E7024B002218791A6008BD00BF62
:1033EC0030140020094B10B51C680CB100240AE005
:1033FC00FFF76CFF0028F9D0FFF7E4FF032802BFAA
:10340C00034B01241C60204610BD00BFC00D0020E2
:10341C00740D00202DE9F04FA74B87B01C680746B0
:10342C000D461E46F4B90D20FFF768FF0A20FFF782
:10343C0065FFA24B4FF0FF321C60A14B40F21450C1
:10344C001C60A04BA0491A60A04BA14A1C602346EB
:10345C0003EB020E9C544133834241F804EFF7D145
:10346C0001233360384600F089FC00232846029380
:10347C000393FCF76FFE18B12C182E46402706E07C
:10348C00904E00240127B046DFF834921EE0A6428D
:10349C00F6D016F8010B03AB8DE8A00002AA0121AF
:1034AC00FFF754FFF3E70D2814D0002C46D0012C65
:1034BC0020D15B281AD0402301939DF81000009571
:1034CC0003AB02AA3946FFF741FF0024FFF77AFF4E
:1034DC000A28E8D17F4800F075FC039E0023AB5509
:1034EC002B78774F002B40F08F81A4E18DF81100E1
:1034FC000224EBE7A0F14103072B09D8DFE813F016
:10350C00110129015D0068000800080008004E0048
:10351C0006AB234403F8080C04AB9A4601341C4454
:10352C004FF0400B5445D0D01AF8010B03AB8DE88B
:10353C00200802AA3946FFF709FFF3E70B2870D0E1
:10354C000ED804284FD006D8022841D031D80128F3
:10355C0040F04C8122E006282FD07BD3082816E0BF
:10356C00152800F0868008D80F287FD0102800F08E
:10357C00D8800E2840F03A81EBE01B280AD002D804
:10358C00182876D032E17F2800F0A680FF2800F0C2
:10359C00A3802BE18DF81000012431E1029C002C5A
:1035AC0000F02E810820FFF7A9FE029B013B02933D
:1035BC00F4E72C704FF0FF3046E1029B039A9342E4
:1035CC0080F01D81E85CFFF799FE029B013308E057
:1035DC00029C002C00F014810820FFF78FFE029B48
:1035EC00013B02930BE10299039B994280F0088105
:1035FC0003F1FF3ABAEB010A09D06B1801312944E7
:10360C005246184600F079FC5146FFF785FE202003
:10361C00FFF774FE0820FFF771FE1AF1FF3AF9D29A
:10362C007BE0029B039A934280F0EA809A46039BCC
:10363C009A4505D22020FFF761FE0AF1010AF6E750
:10364C00029B0AF1FF3B534569D20820FFF756FE57
:10365C00DA46F5E702980399884280F0D180091A7E
:10366C002844FFF759FE039B0293C9E087F001073A
:10367C00C6E0029B33B10820FFF740FE029B013BE2
:10368C000293F6E7039A002A00F0BA809A46039B4D
:10369C009A4505D22020FFF731FE0AF1010AF6E720
:1036AC00029A92450AF1FF3A03D90820FFF726FE49
:1036BC00F6E70392A4E000BFC80D0020780D0020AF
:1036CC00BC0D002008000020C80E0020C40D0020F6
:1036DC001C0F0020224200080299002900F0908063
:1036EC00039B481EC1EB030A52462944029028440E
:1036FC0000F003FC0820FFF701FE02985146284415
:10370C00FFF70AFE2020FFF7F9FD0820FFF7F6FD72
:10371C0053460AF1FF3A002BF7D1039B013B03936D
:10372C006EE03368002BC0F28B805A1E326001327F
:10373C0008BF474AD9F8001004BF12683260D8F8A5
:10374C0000208A4201D133607AE0424B53F822A028
:10375C0015E03368002B73DBD9F8002093426FD04F
:10376C003B490133096833608B42C4BF002333608B
:10377C00D8F800309A4206D0364A52F823A0BAF153
:10378C00000F02D15CE0DFF8D8A0029C34B1082015
:10379C00FFF7B4FD029B013B0293F6E7039B93B149
:1037AC00039B9C4204D22020FFF7A8FD0134F7E7CD
:1037BC00029B04F1FF3BA34204D20820FFF79EFDBD
:1037CC005C46F5E703935146284600F0C7FB2846B4
:1037DC00FCF7C0FC029B039098427FF676AEC11AB0
:1037EC00E818FFF799FD039B02936EE640230193C3
:1037FC00009503AB02AA3946FFF7A8FD00E00024B0
:10380C000A20FEF78EF861E6212B14D03C68114B90
:10381C00294653F8240000F0A1FB0D4A631C1168E3
:10382C00132BC8BF00238B42C8BF13600A4A3B60EE
:10383C001368013313603A68084B30461A6003E092
:10384C000720FFF75BFD40E607B0BDE8F08F00BF37
:10385C00780D0020CC0E0020C40D002008000020A4
:10386C00FC400008024900230B70FFF7D3BD00BFDA
:10387C00880E002070B5002426460D1F024612F853
:10388C00013B202B01D11046F8E7092BFBD05BB193
:10389C00013445F8040F024610F8013B23B1202BEC
:1038AC0005D0092BF7D102E041F8243008E0082CB0
:1038BC0002F101001670E1D12146024800F05EFAD7
:1038CC00204670BD244200082DE9F04F704BADB07E
:1038DC00002401911C6005469846002800F0D08019
:1038EC000378002B00F0CC80FCF734FC3F2803D984
:1038FC00684800F067FAC3E029460CA800F02EFBDC
:10390C00A14601250CAF3B78002B00F0B8807A1E45
:10391C000023013211781646B1B1272906D112F8CD
:10392C00011C5C29F5D083F00103F2E753B93B2964
:10393C00EFD1B742EDD016F8011C5C29E9D03370F9
:10394C00013601E00123E4E73846FCF703FC0023D1
:10395C009C464FF0400E1CAA002860D0BEF1000F10
:10396C0060D0032B07F1010B397800F1FF3A3DD001
:10397C005C290ED1BCF15C0F46D00238BAF1000FB5
:10398C0002D182F800904FE082468C46797807F19C
:10399C00020B012B11D0022B23D0272903D1BCF110
:1039AC005C0F2DD104E0242902D1BCF15C0F29D18C
:1039BC0011700EF1FF3E01322CE0282928D07B2912
:1039CC0026D04FF02403BEF1010F137004D14FF039
:1039DC00000E013273461EE05170AEF1020E02323F
:1039EC0018E0292916D07D2912D113E0272902D1FC
:1039FC00BCF15C0F0ED111700EF1FF3E01320AE0EA
:103A0C00032308E0012306E0012BDAD0022BCFD1EF
:103A1C00022300E0002350468C465F469CE7BEF133
:103A2C00000FAED102F8019C03A91CA8FFF722FFDE
:103A3C00074600B30398FFF7C3F9824620B90399F0
:103A4C00154800F09BF916E043689F4202DDFFF732
:103A5C00C5F910E003AB3A460199C768B847DAF8E4
:103A6C000830002805EA0305D8F8003018BF4FF0DD
:103A7C00FF3413B104E04FF0FF34374643E714B181
:103A8C004FF0FF3000E028462DB0BDE8F08F00BFAE
:103A9C00740D0020434200085842000808B50A483B
:103AAC00FFF7E0FE00B2002805DD0849084800F0E9
:103ABC0055FA002101E003D101210548FFF704FF6D
:103ACC00034B00221A7008BD7B420008880E0020B0
:103ADC007C0D002002680D4B10B59A4215D10C4B91
:103AEC000C4C002221781868FDF72AFFC0B2FF2881
:103AFC0002D1094800F066F9002323700122054920
:103B0C000648BDE81040FDF7F5BD10BD003801407A
:103B1C00300E0020340E0020834200083C1400209C
:103B2C00204B07B59A69032042F001029A619B6908
:103B3C0003F001030193019BFCF756FE0022114692
:103B4C006FF00B00FCF762FE002211466FF00A00CA
:103B5C00FCF75CFE002211466FF00900FCF756FEE4
:103B6C00002211466FF00400FCF750FE00221146B3
:103B7C006FF00300FCF74AFE00220F216FF00100EA
:103B8C00FCF744FE00220F214FF0FF30FCF73EFE05
:103B9C00054A536823F0E06343F08063536003B03D
:103BAC005DF804FB00100240000001407047FEE786
:103BBC00FEE7FEE7FEE7704708B5FCF743FBBDE800
:103BCC000840FDF719BF00000148FDF7C7BD00BF55
:103BDC003C14002073B515460C468E18B442214691
:103BEC0010D00B7809480A2B03BF40F60D2202A90E
:103BFC0021F8042D0A230CBF022201220134FDF707
:103C0C001DFDEBE7284602B070BD00BF3C14002040
:103C1C0070B50123B1FBF3F4944201D35343F9E79C
:103C2C007BB1B1FBF3F40568092C03FB141105F10E
:103C3C000106CCBF37343034066093FBF2F32C70A2
:103C4C00EEE770BD2DE9F34113460C46064602AD76
:103C5C0045F8040D2D272278002A50D0252A48D16A
:103C6C006278642A1ED00AD8582A38D0632A11D018
:103C7C00252A3CD10199481C01900A7037E0732A1F
:103C8C001CD002D8692A0DD031E0752A23D0782AAD
:103C9C0025D02CE0019A0433511C019153F8041CDB
:103CAC00117024E0196803F10408002904DA019B5F
:103CBC0049425A1C01921F700A2214E0191D1B68FC
:103CCC001A7832B1019A501C019013F8010B107044
:103CDC00F6E70B460BE003F104080A2202E003F1BD
:103CEC000408102219682846FFF792FF4346023455
:103CFC00B1E701990134481C01900A70ABE7019BB4
:103D0C001A700198801B02B0BDE8F08130B50446F2
:103D1C00002023788BB3252B28D16378651C692B65
:103D2C0014D006D8632B0ED0642B0FD0582B1AD17D
:103D3C0015E0752B0AD0782B11D0732B13D10A1DDB
:103D4C000968401A05E00A1D431C12E000F10B0340
:103D5C0007E00B1811F8014B002CFAD109E000F127
:103D6C0008030A1D05E0431C0A4602E00A462546E4
:103D7C00431C6C1C11461846CBE730BD0FB4B0B5D4
:103D8C0082B000AF07F1180454F8045B21462846B2
:103D9C007C60FFF7BBFF073020F00700ADEB000D98
:103DAC002246294668467C60FFF74CFF694602466E
:103DBC000120FFF70FFF0837BD46BDE8B04004B047
:103DCC007047000038B50546FCF7C4F92946024691
:103DDC0004460120FFF7FEFE012205460549104668
:103DEC00FFF7F8FE01342844001B18BF4FF0FF30DA
:103DFC0038BD00BFFB40000808B50B480B4B4FF417
:103E0C00E13E80E808400C2200238360C36003611C
:103E1C0042618361C361FDF7E5FB18B1BDE8084061
:103E2C00FFF752BA08BD00BF3C1400200038014017
:103E3C0010B50268164B86B09A4227D103F5584349
:103E4C009A6902A942F480429A619B69114803F471
:103E5C0080430193019B4FF400730293022303935D
:103E6C00032300240593FCF733FD4FF4806302A970
:103E7C000848029303940494FCF72AFD252022465B
:103E8C000521FCF7C3FC2520FCF7F4FC06B010BDA3
:103E9C0000380140000801400E4B70B51E460E4C18
:103EAC000025E41AA410A54204D056F825309847F2
:103EBC000135F8E700F070F8084B094C1E46E41A7F
:103ECC00A4100025A54204D056F82530984701359A
:103EDC00F8E770BDB0420008B0420008B0420008DC
:103EEC00B442000810B5431E0A44914204D011F8A4
:103EFC00014B03F8014FF8E710BD884210B501EBF8
:103F0C00020301D8421E0BE09842FBD28118D21A50
:103F1C00D34204D013F8014D01F8014DF8E710BD60
:103F2C00994204D011F8014B02F8014FF8E710BD8B
:103F3C0003460244934202D003F8011BFAE7704790
:103F4C00C9B2034610F8012B1AB19142F9D11846A7
:103F5C00704700290CBF184600207047034611F823
:103F6C00012B03F8012B002AF9D1704730B582B12F
:103F7C00451E013915F8013F11F8014FA34206D136
:103F8C00EC431444E04201D0002BF3D11C46181B27
:103F9C0030BD104630BD0000F8B500BFF8BC08BC01
:103FAC009E467047F8B500BFF8BC08BC9E467047EB
:103FBC0002030405060708090A0B0C0D0E0F10105E
:103FCC000102000016420008892F000800000000C2
:103FDC00000000002000000008420008932F000899
:103FEC00000000000000000020000000F941000863
:103FFC00A12F00080000000000000000600000007D
:10400C00EE410008D12F0008000000000000000065
:10401C000001000040000000010000000000000052
:10402C00000000000102030406070809000000005C
:10403C000102030449444C4500414443204120768D
:10404C00616C7565202575200A00636F6D6D616E5E
:10405C00642E63206E6F206D6174636820636F6DD6
:10406C006D616E64002573202D2025730A00557335
:10407C006167653A0A257320002D204E6F2061641C
:10408C00646974696F6E616C2068656C7020617610
:10409C0061696C61626C652E002D2000556E6B6E33
:1040AC006F776E20636F6D6D616E642027257327AB
:1040BC00202D20747279202768656C702720776911
:1040CC0074686F757420617267756D656E7473209A
:1040DC00666F72206C697374206F6620616C6C2043
:1040EC006B6E6F776E20636F6D6D616E64730A0A11
:1040FC000068656C70007072696E7420636F6D6D12
:10410C00616E64206465736372697074696F6E2F7D
:10411C0075736167650A002020202D207072696E0E
:10412C007420627269656620646573637269707469
:10413C00696F6E206F6620616C6C20636F6D6D61B2
:10414C006E64730A68656C7020636F6D6D616E646C
:10415C00202E2E2E0A2020202D207072696E7420A5
:10416C0064657461696C6564207573616765206F43
:10417C00662027636F6D6D616E64270A00257320BE
:10418C00737461636B206F7665726C6F77200A00B5
:10419C004672656552544F53206D656D6F72792070
:1041AC00616C6C6F636174696F6E206661696C65BC
:1041BC006400436865636B20616C6C206F662054EF
:1041CC0061736B20537461636B2053697A65206F44
:1041DC00722064617461202B206273732053697A9E
:1041EC00650073746D333255736172740073746D42
:1041FC0033324C697665436865636B0073746D3359
:10420C0032416C61726D4F75740064656661756CDA
:10421C00745461736B000D002A2A20546F6F206D4B
:10422C00616E79206172677320286D61782E20256C
:10423C006429202A2A0A00232320436F6D6D616EA6
:10424C006420746F6F206C6F6E672100556E6B6EFF
:10425C006F776E20636F6D6D616E642027257327F9
:10426C00202D20747279202768656C70270A004114
:10427C0055544F49543E004661696C6564206F7318
:0C428C004D657373616765205075740008
:10429800FD40000808000000010000005D2F000834
:0842A800024100082341000857
:0442B00031010008D0
:0442B4000D010008F0
:0C42B80000A24A04AAAAAAAAFFFFFFFF66
:04000005080001717D
:00000001FF
