:020000040800F2
:1000000000280020710100086136000863360008EE
:1000100065360008673600086936000800000000F1
:10002000000000000000000000000000E5160008CD
:100030006B36000800000000AD1700086D360008A0
:10004000B9010008B9010008B9010008B9010008A8
:10005000B9010008B9010008B9010008B901000898
:10006000B9010008B9010008B9010008B901000888
:10007000B9010008B9010008B9010008B901000878
:10008000B9010008B9010008B9010008000000002A
:10009000000000000000000000000000B90100089E
:1000A0000000000000000000000000000000000050
:1000B000B9010008B9010008B9010008B901000838
:1000C000B9010008B9010008B9010008B901000828
:1000D000B90100087D360008B9010008B90100081F
:1000E000B9010008B901000800000000000000008C
:1000F0000000000000000000000000000000000000
:0C01000000000000000000005FF808F1A3
:10010C0010B5054C237833B9044B13B10448AFF345
:10011C0000800123237010BD10050020000000009A
:10012C007C40000808B5034B1BB103490348AFF3EF
:10013C00008008BD00000000140500207C40000871
:10014C0010F8012B11F8013B012A28BF9A42F7D075
:10015C00D01A7047034613F8012B002AFBD1181A4A
:10016C0001387047002103E00B4B5B5843500431BE
:10017C000A480B4B42189A42F6D30A4A02E0002373
:10018C0042F8043B084B9A42F9D300F011F803F003
:10019C00A5FB02F08BFC7047E44200080000002035
:1001AC00100500201005002088190020FEE7000033
:1001BC000F4B1A6842F001021A6059680D4A0A4046
:1001CC005A601A6822F0847222F480321A601A681B
:1001DC0022F480221A605A6822F4FE025A604FF40C
:1001EC001F029A60044B4FF000629A60704700BF88
:1001FC00001002400000FFF800ED00E010B50446CE
:10020C0000F08AFE4FF47A73B0FBF3F000F0FEF9C5
:10021C00002221464FF0FF3000F0B8F9002010BD4D
:10022C00074A08B51368032043F01003136000F06D
:10023C009BF90F20FFF7E2FF03F074F9002008BDD3
:10024C0000200240024A136801331360704700BF5C
:10025C002C050020014B1868704700BF2C050020AE
:10026C0013B50190FFF7F6FF0446FFF7F3FF019B70
:10027C00001B9842F9D302B010BD0000F7B5002363
:10028C00019390F82430012B00F0AE80012380F80C
:10029C0024304B680468062B0D6818D8676B4FF434
:1002AC00787292FAA2F6B6FA86F6013B92FAA2F2AC
:1002BC00B2FA82F25E4353434FF01F0E0EFA06F66B
:1002CC0027EA060605FA03F33343636330E00C2B8D
:1002DC004FF4787216D8276B92FAA2F6B6FA86F615
:1002EC00073B92FAA2F2B2FA82F25E435A434FF003
:1002FC001F0E0EFA06F627EA060605FA02F232433C
:10030C00226315E0E76A92FAA2F6B6FA86F60D3B7E
:10031C0092FAA2F2B2FA82F25E4353434FF01F0EEE
:10032C000EFA06F627EA060605FA03F33343E362F0
:10033C00092D4FF038038E6818D9D4F80CE093FAD5
:10034C00A3F7B7FA87F7A5F10A0193FAA3F3B3FA67
:10035C0083F201FB07F35143072707FA03F32EEA55
:10036C00030306FA01F21A43E26013E0276993FAD9
:10037C00A3F1B1FA81F193FAA3F3B3FA83F36943CE
:10038C006B43072202FA01F127EA010106FA03F294
:10039C000A432261A5F11003012B01D900231EE0B1
:1003AC00134B9C4216D1A3681B02F7D4A368102DE3
:1003BC0043F40003A360F1D10E4B0F4A1B68B3FB4F
:1003CC00F2F20A2353430193019B002BE6D0019BCD
:1003DC00013BF8E7836A43F0200383620123002288
:1003EC0080F82420184600E0022003B0F0BD00BFC6
:1003FC00002401400000002040420F0038B5036883
:10040C0004469A68D20701D4002038BD9A6822F0BD
:10041C0001029A60FFF71EFF054623689B68DB0705
:10042C00F2D5FFF717FF401B0228F6D9A36A01206B
:10043C0043F01003A362E36A43F00103E36238BDA7
:10044C0038B50446002800F08880836A23B9C3625B
:10045C0080F8243003F0ACF82046FFF7CFFFA36AF6
:10046C0013F0100FA36A75D1002873D123F48853AD
:10047C0023F0020343F00203A362E068022393FA21
:10048C00A3F3B3FA83F36168E26900FA03F30A4356
:10049C00A1681343B1F5807F05D0012914BF002258
:1004AC004FF4807200E00A466569012D15D160B9E0
:1004BC004FF4604090FAA0F0B0FA80F5A06942F4D5
:1004CC0000620138A840024307E0A06A40F0200017
:1004DC00A062E06A40F00100E0622068B1F5807F24
:1004EC00456825F4694542EA0502426085681C4A64
:1004FC0002EA050242EA0302826001D001290AD114
:10050C004FF4700292FAA2F2B2FA82F22169013926
:10051C0001FA02F200E00022C16A21F470010A43E0
:10052C00C26281680F4A0A40934208D10020E062FF
:10053C00A36A23F0030343F00103A36238BDA36A4B
:10054C0023F0120343F01003A362E36A43F00103A8
:10055C00E36202E043F01003A362012038BD00BF48
:10056C00FDF7E1FFFE0E1FFF074A0002D36800F4FF
:10057C00E06023F4E0631B041B0C43F0BF6343F403
:10058C0000330343D360704700ED00E0174B30B5E8
:10059C00DB68C3F30223C3F107041D1D042C28BF21
:1005AC000424062D4FF0010505FA04F404F1FF3480
:1005BC008CBF033B00230C409C4005FA03F3013B2A
:1005CC001A40002842EA04024FEA0212AFBF00F1BF
:1005DC006040074B00F00F00D2B2A5BFD2B200F5BD
:1005EC0061401A5480F8002330BD00BF00ED00E0DC
:1005FC0014ED00E04209012300F01F0003FA00F0A3
:10060C00014B43F82200704700E100E00138B0F1E3
:10061C00807F0AD2064B074AF021586082F82310DB
:10062C000020072298601A6070470120704700BFB5
:10063C0010E000E000ED00E0044B04281A680CBF49
:10064C0042F0040222F004021A60704710E000E04D
:10065C002DE9F74F00242646624BDFF894E1DFF8D2
:10066C0094C101220D68B24032EA050540F0B38016
:10067C004D68122D28D00ED8022D22D004D835B3B7
:10068C00012D2DD1CC682BE0032D18D0112D27D1A5
:10069C00CC68043424E0544FBD4218D006D8DFF89F
:1006AC005881454513D008F5803805E075450ED0C6
:1006BC0065450CD0DFF84481454511D107E0002495
:1006CC000EE0CC6808340BE0CC680C3408E08C6885
:1006DC002CB1012C0CBF02614261082400E00424FF
:1006EC00FF2A97BF8346A6F10805D0F80090B50005
:1006FC0084BFD0F80490AD004FF00F0808FA05FA4B
:10070C0029EA0A0904FA05F588BF00F1040B49EA45
:10071C000505CBF80050D1F8049019F0805F5AD041
:10072C00324D324FAD6906F0030A45F00105BD614B
:10073C00BD694FEA8A0A05F001050195019D26F075
:10074C00030505F1804505F58035D5F808B0A7F50A
:10075C00843708FA0AF8B8422BEA080810D007F5D3
:10076C008067B8420FD007F58067B8420ED007F506
:10077C008067B8420CBF4FF0030B4FF0040B07E03F
:10078C004FF0000B04E04FF0010B01E04FF0020BB7
:10079C000BFA0AFA4AEA080AC5F808A01D6819F407
:1007AC00803F14BF154395431D605D6819F4003FED
:1007BC0014BF154395435D609D6819F4801F14BFE9
:1007CC00154395439D60DD6819F4001F14BF2A433F
:1007DC0025EA0202DA600136102E7FF442AF03B034
:1007EC00BDE8F08F00040140000021100010024011
:1007FC000000311000003210000011100000221017
:10080C0002B9090401617047704710B5044630B352
:10081C000368DA68D20702D5DB689B071FD4637BB9
:10082C0003F0FF021BB922732046FFF7EDFF45F2E0
:10083C00555202236373236800201A605A6822F011
:10084C00070162680A435A609A68A16822F47F62C1
:10085C0022F00F020A439A600123637310BD01203A
:10086C0010BD000003682DE9F743DC07054603D4EF
:10087C002B68980773D4F2E0B94C636803F00C034F
:10088C00042B07D0636803F00C03082B16D16368A4
:10089C00D90313D54FF4003393FAA3F2226893FAD9
:1008AC00A3F3B3FA83F303F01F0322FA03F3DA077B
:1008BC00DED56B68002BDBD101202DE26B68B3F524
:1008CC00803F15D06BB923684FF4003623F4803386
:1008DC002360236823F480232360FFF7BBFC0746C7
:1008EC002FE0B3F5A02F236806D143F480232360B7
:1008FC00236843F4803305E023F4803323602368BA
:10090C0023F480232360FFF7A5FC07464FF4003641
:10091C0096FAA6F3226896FAA6F3B3FA83F303F0D9
:10092C001F0322FA03F3DB07A2D4FFF793FCC01BCF
:10093C006428EDD90320EFE1FFF78CFCC01B642881
:10094C00F8D896FAA6F3226896FAA6F3B3FA83F3CC
:10095C0003F01F0322FA03F3D807EDD488E7804C89
:10096C00636813F00C0F07D0636803F00C03082BBB
:10097C0021D16368D9031ED4022393FAA3F222680F
:10098C0093FAA3F3B3FA83F303F01F0322FA03F3EE
:10099C00DA0702D52B69012B8ED12368F82292FA43
:1009AC00A2F2B2FA82F2696923F0F80301FA02F2B8
:1009BC001343236053E02A6901237AB393FAA3F219
:1009CC00B2FA82F2920002F1844202F584021360C0
:1009DC00FFF740FC0746022696FAA6F36048226809
:1009EC0096FAA6F3B3FA83F303F01F0322FA03F388
:1009FC00DB0705D4FFF72EFCC01B0228ECD999E7C6
:100A0C000368F82292FAA2F2B2FA82F2696923F030
:100A1C00F80301FA02F21343036020E093FAA3F304
:100A2C00B3FA83F39B0003F1844303F584031A6048
:100A3C00FFF710FC0746022696FAA6F3226896FAF0
:100A4C00A6F3B3FA83F303F01F0322FA03F3D907D7
:100A5C0005D5FFF7FFFBC01B0228EDD96AE72B6811
:100A6C001A0746D5AA693E4C01233E4912B393FAA4
:100A7C00A3F2B2FA82F241F82230FFF7EBFB074601
:100A8C00022696FAA6F396FAA6F3626A96FAA6F3EB
:100A9C00B3FA83F303F01F0322FA03F3DB0705D445
:100AAC00FFF7D8FBC01B0228EBD943E70120FFF767
:100ABC00D7FB1EE093FAA3F3B3FA83F341F8232098
:100ACC00FFF7C8FB0746022696FAA6F396FAA6F39A
:100ADC00626A96FAA6F3B3FA83F303F01F0322FAC1
:100AEC0003F3D80705D5FFF7B5FBC01B0228EBD9DC
:100AFC0020E72B68590704D4EA69002A40F081806A
:100B0C00D8E0174C184EE36943F08053E361E36976
:100B1C0003F080530193019B336843F4807333607B
:100B2C00FFF798FB07463368DA0505D4FFF792FB0D
:100B3C00C01B6428F7D9FDE6EB68012B1CD0ABB9C0
:100B4C00236A022623F001032362236A374623F02B
:100B5C0004032362FFF77EFB41F28839804648E0AC
:100B6C00001002408004424200700040052B236AB2
:100B7C0006D143F004032362236A43F0010305E02A
:100B8C0023F001032362236A23F004032362FFF79B
:100B9C0061FB02268146B04641F2883796FAA6F3ED
:100BAC0096FAA6F30BB1226A00E0626A98FAA8F3EF
:100BBC00B3FA83F303F01F0322FA03F3DB079BD48E
:100BCC00FFF748FBC9EB0000B842E7D9B2E6626A0E
:100BDC0097FAA7F3B3FA83F303F01F0322FA03F394
:100BEC00D80789D5FFF736FBC8EB000048453FF620
:100BFC00A1AE96FAA6F396FAA6F3002BE7D0226ADA
:100C0C00E6E7474C636803F00C03082B3FF454AE43
:100C1C00022A4FF080735CD193FAA3F3B3FA83F3F7
:100C2C009B0003F1844303F5840300221A60FFF751
:100C3C0011FB80464FF0007696FAA6F3384F2268E7
:100C4C0096FAA6F3B3FA83F303F01F0322FA03F325
:100C5C00D90731D42E6AB6F5803F05D1796821F4D5
:100C6C000030A9680143796063686A6A23F47413DD
:100C7C003243134363604FF0807393FAA3F3B3FAD8
:100C8C0083F39B0003F1844303F5840301221A6070
:100C9C00FFF7E0FA06464FF0007595FAA5F32268C7
:100CAC0095FAA5F3B3FA83F303F01F0322FA03F3C7
:100CBC00DA0708D500202FE0FFF7CCFAC8EB0000CC
:100CCC000228B9D936E6FFF7C5FA801B0228E4D909
:100CDC0030E693FAA3F3B3FA83F39B0003F1844356
:100CEC0003F5840300221A60FFF7B4FA06464FF0AE
:100CFC00007595FAA5F3226895FAA5F3B3FA83F378
:100D0C0003F01F0322FA03F3DB07D3D5FFF7A2FA94
:100D1C00801B0228EDD90DE603B0BDE8F08300BFBF
:100D2C00001002401F4B70B503F110052E4686B023
:100D3C0002AC224618685968083303C2AB42144609
:100D4C00F7D13388184CADF80430606800F00C0310
:100D5C00082B24D14FF4701393FAA3F3B3FA83F353
:100D6C0000F4701222FA03F306AA134413F8101CB1
:100D7C00C30311D562684FF4003393FAA3F3B3FAAB
:100D8C0083F002F40033C34006AA134413F8140C86
:100D9C00064BB3FBF0F000E00548484300E0034885
:100DAC0006B070BD944000080010024000127A009A
:100DBC0000093D00544A2DE9F0411368064603F042
:100DCC0007038B420D460AD331688C0714D54F4864
:100DDC00436823F0F002B368134343600CE01368DC
:100DEC0023F007030B431360136803F007039942C6
:100DFC00EAD00120BDE8F081C80706D4424A136846
:100E0C0003F007039D424AD353E072683F4C012A1A
:100E1C0002D14FF4003304E0022A0CBF4FF00073F0
:100E2C00022393FAA3F1216893FAA3F3B3FA83F3A1
:100E3C0003F01F0321FA03F3D907DAD5636841F2F3
:100E4C00883823F003031A436260FFF703FA7368D0
:100E5C000746012B0CD1636803F00C03042BCDD097
:100E6C00FFF7F8F9C01B4045F5D90320BDE8F08128
:100E7C00022B0FD1636803F00C03082BBED0FFF7D5
:100E8C00E9F9C01B4045F5D9EFE7FFF7E3F9C01BC3
:100E9C004045EAD8636813F00C0FF6D1AEE713683F
:100EAC0023F007032B431360136803F007039D42E1
:100EBC009FD13168154C11F0040F05D0636823F4F1
:100ECC00E062F368134363600B0706D5636832690D
:100EDC0023F4605343EAC2036360FFF723FF6368A4
:100EEC00F02292FAA2F2B2FA82F203F0F003D340AB
:100EFC00074AD35CD840074B18600F20FFF77EF9E8
:100F0C000020BDE8F08100BF00200240001002402C
:100F1C00EC40000800000020014B1868704700BF2F
:100F2C0000000020084B4FF4E0625B6892FAA2F2DA
:100F3C00B2FA82F203F4E063D340044AD35C044A6D
:100F4C001068D840704700BF00100240FC400008F9
:100F5C0000000020084B4FF460525B6892FAA2F23A
:100F6C00B2FA82F203F46053D340044AD35C044ACD
:100F7C001068D840704700BF00100240FC400008C9
:100F8C000000002003682DE9F7430546D80764D517
:100F9C00394C3A4EE36943F08053E361E36903F063
:100FAC0080530193019B336843F480733360FFF7E4
:100FBC0051F907463368D90506D4FFF74BF9C01B26
:100FCC006428F7D9032054E0236A2B4813F44073A8
:100FDC0006D1236A23F440726B68134323623CE00E
:100FEC006A6802F440729342F3D0016A4FF4803382
:100FFC0021F4407793FAA3F2B2FA82F2204E4FF02A
:10100C00010E46F822E093FAA3F3B3FA83F300221D
:10101C0046F82320CA070762DBD5FFF71BF9022627
:10102C008046374641F2883996FAA6F396FAA6F32B
:10103C000BB1226A00E0626A97FAA7F3B3FA83F362
:10104C0003F01F0322FA03F3DB07C2D4FFF702F904
:10105C00C8EB00004845E7D9B4E7286810F0020057
:10106C0007D0054900204B6823F44042AB6813437A
:10107C004B6003B0BDE8F0830010024000700040EC
:10108C00000442422DE9F0470668816833698146C5
:10109C0023F44052C3681924134333610369F26883
:1010AC0019434369194322F4B05323F00C030B4347
:1010BC00F360736923F440728369134373613D4B8E
:1010CC009E4231D1FFF746FF6043D9F804704FF0D0
:1010DC006408BF00B0FBF7F7FFF73CFF6043D9F89B
:1010EC000450B7FBF8F7AD00B0FBF5F5FFF732FF96
:1010FC006043D9F804303F019B00B0FBF3F0B0FB28
:10110C00F8F008FB1055FFF725FF2D013235B5FB24
:10111C00F8F56043D9F8041005F0F0058900B0FB30
:10112C00F1FAFFF717FF30E0FFF7FCFE6043D9F848
:10113C0004704FF06408BF00B0FBF7F7FFF7F2FE46
:10114C006043D9F80450B7FBF8F7AD00B0FBF5F5E8
:10115C00FFF7E8FE6043D9F804303F019B00B0FB79
:10116C00F3F0B0FBF8F008FB1055FFF7DBFE2D0198
:10117C003235B5FBF8F56043D9F8041005F0F005ED
:10118C008900B0FBF1FAFFF7CDFE4443D9F8040017
:10119C008000B4FBF0F0B0FBF8F008FB10A21201D9
:1011AC003232B2FBF8F303F00F032B441F44B76049
:1011BC00BDE8F08700380140F8B504460E461546E8
:1011CC00FFF748F807462268136836EA030321D074
:1011DC006B1CF9D0C5B923680320DA6822F08002B1
:1011EC00DA60DA6822F02002DA60DA6822F48072BF
:1011FC00DA605A6922F001025A61012384F839300D
:10120C00002384F83830F8BDFFF724F8C01B854262
:10121C00D9D2E0E70020F8BD10B5044630B390F801
:10122C00393003F0FF021BB980F8382002F0DEF9E8
:10123C002268022384F83930D368204623F4005303
:10124C00D360FFF71FFF236800201A6922F4904235
:10125C001A615A6922F02A025A61DA6842F4005281
:10126C00DA600123E06384F8393010BD012010BD31
:10127C0070B50D4690F839100446C9B201291E46C6
:10128C0001D022294ED1002D4AD0002A48D094F802
:10129C003830012B46D0012384F838300023E36327
:1012AC0094F83930A284222B0CBF3223122384F8F9
:1012BC003930E284E28C02B3A368013AB3F5805F63
:1012CC00E2844FF08001324620460DD1FFF774FFC7
:1012DC0008B1032070BD2B882268C3F30803536048
:1012EC00236943B90235E5E7FFF766FF0028F0D123
:1012FC0023682A785A600135DCE7324640212046C3
:10130C00FFF75AFF0028E4D194F83930322B0CBF88
:10131C002223012384F83930002384F8383070BD3F
:10132C00012070BD022070BD90F83930DBB2012B6A
:10133C0001D0122B28D129B322B390F83830012BCD
:10134C0022D0012380F838300023C3638285C28504
:10135C0090F8392080F83830122A03680CBF3222FA
:10136C00222280F83920DA68816242F48072DA60D5
:10137C005A69002042F001025A61DA6842F02002F8
:10138C00DA60704701207047022070477047704741
:10139C00026813B511680446C907D36805D5DB0587
:1013AC0042BFC36B43F00103C363116853698807E1
:1013BC0003F0010304D51BB1E16B41F00401E163BF
:1013CC001168490704D51BB1E16B41F00201E163DF
:1013DC001168080704D51BB1E36B43F00803E36302
:1013EC001168D368890642D5980640D594F83930EF
:1013FC0003F0EF03222B3AD1A3682169B3F5805F88
:10140C00A36A0BD1526821B9C2F3080223F8022B4C
:10141C0002E0D2B223F8012BA3620AE019B9591CDD
:10142C00A162526804E05268591CA16202F07F026A
:10143C001A70E38D013B9BB2E385C3B92368204648
:10144C00DA6822F02002DA6094F83920322A17BFC9
:10145C00DA68122322F48072DA601FBF5A6922F014
:10146C0001025A61012384F8393002F02DF8236807
:10147C001968DA68090628D5100626D594F839209B
:10148C0002F0DF02122A20D1A268B2F5805F226A34
:10149C000AD11188C1F308015960216909B90232D6
:1014AC0000E00132226203E0511C216212785A6082
:1014BC00E28C013A92B2E2843AB9DA6822F0800204
:1014CC00DA60DA6842F04002DA601968DA684906D4
:1014DC0010D552060ED5DA68204622F04002DA60AA
:1014EC0094F83930322B0CBF2223012384F8393085
:1014FC00FFF74CFFE36B5BB1236820461A6801923F
:10150C005B680193019B012384F83930FFF73FFF9F
:10151C0002B010BD08B500F017FE002008BD70B574
:10152C00B0F908400025842C08BF2C4686B0028AEE
:10153C0018BF03340B4690E8420005A801900395B0
:10154C0002950094304600F01FFD01280CBF059851
:10155C00002006B070BD08B5002808BF012000F0BF
:10156C0025FF002008BD012910B508460BD1032228
:10157C00002100F04DFB044638B100231A461946F1
:10158C0000F06CFB01E0002010BD204610BD0022D5
:10159C0003C800F03DBB0000F0B5002685B0044642
:1015AC00174608460391029601AD09B980231FE046
:1015BC000096EFF3058383B16A4602A900F070FC34
:1015CC00012804BF10230193009B18BF019683B11F
:1015DC000B4B4FF080521A600BE002A900F0CAFBD3
:1015EC00012801D1102303E0002F0CBF002340235E
:1015FC00019395E8070084E80700204605B0F0BD8C
:10160C0004ED00E008B501F01BF8012803D0BDE89B
:10161C00084000F0E7B808BD00F1080343604FF044
:10162C00FF32C360036100238260036070470023B4
:10163C000361704743689A684B608A609A6851608E
:10164C009960036808610133036070470A6830B51C
:10165C00531C01D1036907E000F108035C6825689D
:10166C00AA4201D32346F9E75A684A6091608B601D
:10167C005960036808610133036030BD41688268BA
:10168C0003698A60826851605968884208BF5A6051
:10169C00002202611868013818607047064800681B
:1016AC00006880F3088862B661B6BFF34F8FBFF352
:1016BC006F8F00DF00BF000008ED00E04FF080737B
:1016CC0000E90A00034B40F8202C40F80C3C403851
:1016DC00704700BF31170008074B19680868B0E85D
:1016EC00F00F80F30988BFF36F8F4FF0000080F389
:1016FC0011884EF00D0E704718120020044B4FF05D
:10170C0080521A60BFF34F8FBFF36F8F704700BFCB
:10171C0004ED00E0EFF311804FF0500181F31188DC
:10172C007047002008B5054B1B68013302D0FFF74A
:10173C00F1FFFEE7FFF7EEFFFEE700BF040000201D
:10174C0008B5FFF7E7FF094A136801331360BFF3CD
:10175C004F8FBFF36F8F012B07D1054B1B6813F015
:10176C00FF0F02D0FFF7D6FFFEE708BD04000020F4
:10177C0004ED00E080F311887047000008B5074BBA
:10178C00186810B9FFF7C6FFFEE70138186018B9E2
:10179C00BDE80840FFF7EEBF08BD00BF0400002005
:1017AC00EFF30980BFF36F8F0D4B1A6820E9F00F30
:1017BC0010602DE908404FF0500080F3118800F0C4
:1017CC0059FE4FF0000080F31188BDE808401968FD
:1017DC000868B0E8F00F80F30988BFF36F8F70478B
:1017EC001812002008B5FFF795FF00F0E5FC18B1C2
:1017FC00044B4FF080521A600020BDE80840FFF700
:10180C00B9BF00BF04ED00E0064B4FF47A721B68C1
:10181C00B3FBF2F3044A013B1360044B07221A603A
:10182C00704700BF0000002014E000E010E000E072
:10183C0013B51F4B00211A78D2B20192FF221A70F5
:10184C001B781C4ADBB28DF803309DF8033003F093
:10185C0050031370184B07221A609DF80300541E96
:10186C00000608D59DF8032001215200D2B28DF854
:10187C0003202246F1E701B11A601A68120202F441
:10188C00E0621A60019B0A4ADBB213700B4B1A68B8
:10189C0042F470021A601A6842F070421A60FFF744
:1018AC00B3FF074B00221A60FFF7F8FEFFF73AFF71
:1018BC0000E400E0300500203405002020ED00E0BD
:1018CC000400002008B5EFF305830F2B08D90A4A52
:1018DC009B5C0A4A12789A4202D9FFF71BFFFEE77B
:1018EC00074B084A1B68126803F4E063934202D961
:1018FC00FFF710FFFEE708BDF0E300E03005002025
:10190C000CED00E03405002010B50F4B1A68824234
:10191C0001D21346FAE759685C18A04201BF40682F
:10192C0009181846596041684418A24207D1074C5F
:10193C002468A2421FBF546812680919416098427A
:10194C00026018BF186010BD400500203C05002047
:10195C002DE9F041044600F027FC3A493A4D0B685A
:10196C000BBB3A4A56071FBFD01D20F0070002F5EB
:10197C004063024614BF1B1A4FF440631344344EA9
:10198C00083B23F007030020706032605860186039
:10199C000B60981A13602F4B506018602E4B186018
:1019AC004FF000432B602F68274240D1002C3FD0D2
:1019BC0004F1080358071CBF23F007030833002B5E
:1019CC0033D0254A16689046B34230D8204A156861
:1019DC006868834203D809688D4206D127E02C68D9
:1019EC00002CF8D02A462546F2E7296814681160C5
:1019FC00C21A102A04F1080409D9E818410702D0C8
:101A0C00FFF788FEFEE742606B60FFF77DFF114930
:101A1C006A680868B31A8342C8F8003038BF0B6094
:101A2C00174300236F602B6002E01C4600E000248B
:101A3C0000F054FC630702D0FFF76CFEFEE7204673
:101A4C00BDE8F0813C05002048110020480500202D
:101A5C00400500204C1100203805002010B504462C
:101A6C0010B3124A50F8043C1268134202D1FFF72B
:101A7C0051FEFEE750F8081C11B1FFF74BFEFEE7D4
:101A8C0023EA020340F8043C00F08EFB084A54F8A9
:101A9C00041C1368A4F108000B441360FFF734FF17
:101AAC00BDE8104000F01ABC10BD00BF481100206A
:101ABC003805002038B51546026C044632B9056865
:101ACC0045BB406800F016FE656024E06DB9806887
:101ADC0002F04EF9A268236C13446268A36093422F
:101AEC0018D323682846A36015E0C06802F040F9BB
:101AFC00236CE2685B4221681A448A42E2603EBF72
:101B0C0062689B18E360022D04D1A36B13B1A36B25
:101B1C00013BA3630020A36B0133A36338BD0346D1
:101B2C001A6C10B4084662B1D9685C681144A142C1
:101B3C00D96028BF196810BC28BFD960D96802F0D9
:101B4C0017B910BC704738B50446FFF7F9FD04F11E
:101B5C002405A36C002B0BDD636A4BB1284600F007
:101B6C00EFFC08B100F066FDA36C013BA364F0E749
:101B7C004FF0FF33A364FFF701FEFFF7E1FD04F123
:101B8C001005636C002B0BDD23694BB1284600F06C
:101B9C00D7FC08B100F04EFD636C013B6364F0E7C9
:101BAC004FF0FF336364BDE83840FFF7E7BD38B54D
:101BBC000D46044610B9FFF7ADFDFEE7FFF7C0FD7B
:101BCC00206CE36B22684343D1181B1A13446160E9
:101BDC00E36000214FF0FF33A163A2606364A36450
:101BEC0055B9236983B104F1100000F0A9FC012858
:101BFC000AD1FFF783FD07E004F11000FFF70CFD9D
:101C0C0004F12400FFF708FDFFF7B8FD012038BDF3
:101C1C00F8B50D461746064610B9FFF77BFDFEE7F3
:101C2C0011B14843013000E008465430FFF790FEF4
:101C3C00044630B10DB9206006E000F15403036096
:101C4C0002E0FFF767FDFEE7E6632564012120460D
:101C5C00FFF7ADFF84F850702046F8BD2DE9F04336
:101C6C0085B0894601921F46044610B9FFF752FD14
:101C7C00FEE721B9036C13B1FFF74CFDFEE7022F11
:101C8C0005D1E36B012B02D0FFF744FDFEE700F01A
:101C9C00D7FC10B9019E0EB166E000264FF000088B
:101CAC00FFF74EFDA26BE36B9A4201D3022F15D1C5
:101CBC003A4649462046FFF7FDFE636A43B104F1FC
:101CCC00240000F03DFC012804D1FFF717FD01E0D2
:101CDC000028FAD1FFF752FD012048E0019D1DB903
:101CEC00FFF74CFD284642E016B902A800F064FC50
:101CFC00FFF744FD00F058FAFFF722FD636C013347
:101D0C0008BFC4F84480A36C013308BFC4F84880F2
:101D1C00FFF734FD01A902A800F05EFCE8B9FFF75B
:101D2C000FFDA66BE56BFFF729FDAE420FD10199B4
:101D3C0004F1100000F0D2FB2046FFF704FF00F086
:101D4C00CDFA08B10126ABE7FFF7D8FCFAE720463D
:101D5C00FFF7F9FE00F0C2FAF4E72046FFF7F3FEB6
:101D6C0000F0BCFA002002E0FFF7D4FCFEE705B05F
:101D7C00BDE8F0832DE9F04385B088460192994681
:101D8C00044610B9FFF7C6FCFEE721B9036C13B18A
:101D9C00FFF7C0FCFEE700F053FC10B9019E0EB13A
:101DAC0078E000260027FFF7CBFCA36B3BB3414642
:101DBC002046E568FFF7B3FEB9F1000F12D1A36B13
:101DCC00013BA363236813B900F0D8FC606023695E
:101DDC008BB104F1100000F0B3FB01280BD1FFF71D
:101DEC008DFC08E0636AE5602BB104F1240000F07F
:101DFC00A7FB0028F3D1FFF7C1FC01204DE0019DAA
:101E0C001DB9FFF7BBFC284647E016B902A800F045
:101E1C00D3FBFFF7B3FC00F0C7F9FFF791FC636C41
:101E2C00013308BF6764A36C013308BFA764FFF7D5
:101E3C00A5FC01A902A800F0CFFB20BBFFF780FC9A
:101E4C00A56BFFF79BFCC5B9236833B9FFF778FC8A
:101E5C00606800F005FCFFF791FC019904F1240087
:101E6C0000F03CFB2046FFF76EFE00F037FA08B19D
:101E7C00012698E7FFF742FCFAE72046FFF763FEDE
:101E8C0000F02CFAF4E72046FFF75DFE00F026FA8E
:101E9C00002002E0FFF73EFCFEE705B0BDE8F08352
:101EAC002DE9F0410E461746044610B9FFF732FCF7
:101EBC00FEE721B9036C13B1FFF72CFCFEE7FFF72B
:101ECC0001FDFFF727FC0125A563A36B8046CBB171
:101EDC0023783370A36B013BA363636C01330DD187
:101EEC0023690BB901240EE004F1100000F028FB6B
:101EFC000028F7D0002FF5D03D60F3E7636C013379
:101F0C006364EFE71C464046FFF734FC2046BDE80F
:101F1C00F0810000064A13681968064B11B94FF09E
:101F2C00FF3203E01268D268D26852681A607047B8
:101F3C00541100201C1200200E4B10B51A680446D8
:101F4C0050600D4A1268904207D2BDE810400B4A0F
:101F5C00106819680431FFF779BB094A10681968D1
:101F6C000431FFF773FB074B1A68944238BF1C60AF
:101F7C0010BD00BF181200202412002028120020CF
:101F8C00541100201C1200202DE9F84F0A9E9A468D
:101F9C000F461546DDF82C800C9B814610B9FFF7D7
:101FAC00B9FBFEE7062E02D9FFF7B4FBFEE73BB9FF
:101FBC009000FFF7CDFC8346002800F0A68000E0DF
:101FCC009B465C20FFF7C4FC044688B1AD002A4652
:101FDC00C0F830B0A521584601F0F0FE236B043D4B
:101FEC001D4425F007057B1E04F133020F3705E075
:101FFC005846FFF733FD88E0BB4206D013F8011FAB
:10200C0002F8011F19780029F6D14FF0000B271D9B
:10201C00384684F843B0E662E664C4F850B0FFF783
:10202C0006FB04F11800FFF702FBC6F10703C4F826
:10203C0054B02461A361646284F858B05246494696
:10204C002846FFF73BFB2060B8F1000F01D0C8F821
:10205C000040FFF775FB2F4A2F4D1368DFF8DC901B
:10206C00013313602B683BBB2C601268012A2BD107
:10207C00984609EB080008F11408FFF7CDFAB8F1FF
:10208C008C0FF6D1DFF8B8A0DFF8B8805046FFF718
:10209C00C3FA4046FFF7C0FA2048FFF7BDFA2048C4
:1020AC00FFF7BAFA1F48FFF7B7FA1F4BC3F800A0A7
:1020BC001E4BC3F8008007E01D4B1B6823B92B682F
:1020CC00DB6A9E4228BF2C601A4A1B4913680133F5
:1020DC001360E26A63640B68012404FA02F00343A0
:1020EC0014200B6000FB02903946FFF7A3FAFFF7B0
:1020FC0045FB0F4B1B682BB12B68DB6A9E4201D949
:10210C00FFF7FCFA2046BDE8F88F4FF0FF30BDE832
:10211C00F88F00BF44120020181200202C1200204F
:10212C00041200205C120020541100202812002000
:10213C00581100204012002070120020781100204D
:10214C00601100204812002030B5002485B00394A3
:10215C00029401940094234680220E490E48FFF706
:10216C0013FF012805460ED1FFF7D4FA0B4B4FF0A5
:10217C00FF321A600A4B1D600A4B1C6005B0BDE8AB
:10218C003040FFF755BB10B9FFF7C4FAFEE705B0B6
:10219C0030BD00BF04410008192400081C120020A7
:1021AC005811002024120020024A136801331360D6
:1021BC00704700BF201200203D4B2DE9F74F1B68E4
:1021CC00002B36D13B4B1A6801321A601D688DB951
:1021DC00394B1A68126812B1FFF79CFAFEE7374ABE
:1021EC001968106818601160354A13680133136060
:1021FC00FFF790FE334C4FF0000B236801949D4287
:10220C00314E324F0BD3DFF8B080DFF8CC90D8F8DA
:10221C0000201268A2B9019B4FF0FF321A603A6895
:10222C00D16A14224A43B258022A28BF4FF0010B3C
:10223C0034E0274A4FF0000B1368013313602DE094
:10224C00D8F80020D268D46861688D4202D2019B14
:10225C001960E4E704F1040A5046FFF70FFAA16A8B
:10226C0019B104F11800FFF709FAE06AD9F8001067
:10227C00012303FA00FE4EEA01014FF0140EC9F8D7
:10228C0000100EFB00605146FFF7D4F93868E16A84
:10229C00C26A914228BF4FF0010BB8E70D4A126891
:1022AC00002A18BF4FF0010B584603B0BDE8F08F61
:1022BC00201200202412002054110020281200208B
:1022CC00501100201C120020781100201812002040
:1022DC007411002074120020701200202DE9F843B4
:1022EC002A4C236813B9FFF715FAFEE7FFF728FA13
:1022FC002368013B236023680BB1002441E0244B8D
:10230C001B68002BF9D0234D234EDFF89C802B68E3
:10231C0003B3EB680127DC6804F1040904F118002D
:10232C00FFF7ACF94846FFF7A9F9E26A336807FAF8
:10233C0002F114200B4300FB028049463360FFF787
:10234C0079F9164BE26A1B68DB6A9A42DFD3144BAD
:10235C001F60DAE7134C236833B9114B1C68012C4E
:10236C00CBD1FFF7CBF90CE00D4D01262368002BE8
:10237C00F3D0FFF721FF00B12E602368013B2360EF
:10238C00F4E7FFF7FBF92046BDE8F88320120020A4
:10239C00441200202C120020701200201812002071
:1023AC0074120020741100207811002038B518B96F
:1023BC00BDE83840FFF7A2B9104B1B6813B1FFF70B
:1023CC00A9F9FEE7FFF7F0FE0D4B0E4D1B68C41884
:1023DC0028680430FFF752F940B92B680A49D86ACB
:1023EC000A680123834022EA03030B602046FFF7AF
:1023FC00A3FDFFF773FF0028DAD038BD20120020B0
:10240C00241200201812002070120020154D80B5E7
:10241C002E46154F2B68F3B1FFF7C6FE3C68FFF74D
:10242C005DFF002CF6D0FFF78BF90F4BDB68DC68F7
:10243C00201DFFF723F90D4A1368013B1360336825
:10244C00013B3360FFF79AF9206BFFF707FB20463F
:10245C00FFF704FBDEE7064B1B68012BD9D9FFF70E
:10246C004DF9D6E75C110020041200204412002024
:10247C0078110020144B10B51A68144B0AB10122C4
:10248C0020E01A60124B1B68B3FA83F3DBB2C3F182
:10249C001F0314225A430F498C58881814B9FFF79C
:1024AC0039F9FEE74468083264680A44944208BF6C
:1024BC006268446008BF4260142202FB03135B682D
:1024CC00DA68054B1A6010BD20120020741200202F
:1024DC0070120020781100201812002038B50D461B
:1024EC0010B9FFF717F9FEE7114C21681831FFF707
:1024FC00ADF820680430FFF7C1F840B923680D49E6
:10250C00D86A0A680123834022EA03030B606B1C20
:10251C0006D1216808480431BDE83840FFF78AB875
:10252C00064B18682844BDE83840FFF705BD00BFCE
:10253C0018120020701200205C12002024120020BF
:10254C00C36870B5DC6814B9FFF7E4F8FEE704F172
:10255C0018052846FFF792F8114B1B6883B9261D06
:10256C003046FFF78BF80F49E56A0A680123AB4048
:10257C0013430B600C4B1420314600FB053001E07B
:10258C0029460A48FFF756F8094BE26A1B68DB6AD2
:10259C009A4283BF074B01201860002070BD00BF1A
:1025AC002012002070120020781100202C12002024
:1025BC00181200207412002008B510B9FFF7AAF801
:1025CC00FEE7034B1B680360024B1B68436008BDAE
:1025DC00501100202412002038B50D46044610B9C5
:1025EC00FFF798F8FEE711B9FFF794F8FEE7FFF74D
:1025FC00A7F80E4B19682B685A1C10D00C4A20688F
:10260C0012689042626801D091420AD2881A8342C1
:10261C0007D9521A13442B602046FFF7CDFF002434
:10262C0000E00124FFF7AAF8204638BD2412002050
:10263C0050110020014B01221A60704774120020C7
:10264C00054B1B6833B1054B1B68002B0CBF0220DC
:10265C0000207047012070475811002020120020E4
:10266C002DE9F041044600283BD01F4DC36A2A686F
:10267C00D26A934235D282691C4E002AA8BF2A68BE
:10268C004FF01407A8BFD26A07FB0363A4BFC2F1C3
:10269C000702826142699A4220D100F10408404647
:1026AC00FEF7ECFF124B48B9E06A4743F2592AB9DE
:1026BC0019680122824021EA02021A602A6801206C
:1026CC00D26A4146E2621C68904020431860142094
:1026DC0000FB0260BDE8F041FEF7ACBF2B68DB6A83
:1026EC00C362BDE8F08100BF1812002078110020F1
:1026FC0070120020F8B5044608B90020F8BD1C4B38
:10270C001B68984202D0FFF705F8FEE7036D13B97A
:10271C00FFF700F8FEE7C16AC26C013B914203650A
:10272C00EBD0002BE9D1051D2846FEF7A7FF114E73
:10273C00114A50B9E76A1421794373582BB91068C0
:10274C000123BB4020EA03031360E36C1068C3F160
:10275C000701E362A161012404FA03F1084310604C
:10276C00142000FB03602946FEF764FF2046F8BDE9
:10277C00181200207811002070120020044B1A68E7
:10278C001AB119680A6D01320A651868704700BFE2
:10279C00181200202DE9F0470C462E2181461546D3
:1027AC0001F026FB20B94846FDF7D4FC064601E0B3
:1027BC00C9EB00064FF0180808FB05482546002712
:1027CC00444510D0D4F800A032465146484601F09A
:1027DC0025FB30B95046FDF7BDFC86420BD0254693
:1027EC0001371834ECE7012F08D0064801F05CF8EB
:1027FC000020BDE8F0872046BDE8F0872846BDE8FC
:10280C00F08700BF094100080349044B044A5B1AD6
:10281C00DB105A43FFF7BEBFC4420008DC4200087D
:10282C00ABAAAAAA10B50446026901680A4801F0CD
:10283C0017F82168094801F013F8606920B90848B5
:10284C0001F032F8012010BD01F00AF80A2000F066
:10285C002BFA002010BD00BF244100082D410008B8
:10286C00384100082DE9F04F83B000AFD7F830A005
:10287C000646BAF1010F0D4605D0D7F83490002466
:10288C004FF0010875E08B000A3323F00703C7F8FB
:10289C0004D0ADEB030DE84601F1FF3A00231821FB
:1028AC009D4201FB036220DD48F823200133F7E74A
:1028BC0000264446B346D4F8009054F8042FD9F8B7
:1028CC00000011683A60FDF73BFC0028C8BF3A686D
:1028DC000BF1010BC2BF44F8042CC4F80090013674
:1028EC00D345E8D126B10AF1FF3ABAF1000FDFDC8B
:1028FC00002606E0264800F0B3FF504600F0B0FF7B
:10290C000136B54223DD58F826B0DBF810A000F0F4
:10291C004FFA0446E8B9BAF1000FF1D0DBF8009099
:10292C004846FDF717FC0728D8BFC0F1080409EB8F
:10293C00000BD94504D019F8010B00F0B5F9F8E7F4
:10294C0014F1FF34D6D3202000F0AEF9F8E70020C4
:10295C0000E00120D7F804D016E02A46314659F899
:10296C00040FFFF717FF38B1FFF75CFF044308F1C2
:10297C000108D045F1DB06E0D9F80010054800F05D
:10298C006FFF0124F3E720460C37BD46BDE8F08FFE
:10299C00584100085B41000837B5074D074C8DE8DE
:1029AC000C00641B0B460649E410024661432846A2
:1029BC00FFF758FF03B030BDC4420008DC420008EA
:1029CC00ABAAAAAA10B5002414F0010218BF012268
:1029DC0020210648FDF714FF632C4FF47A7094BF46
:1029EC0001340024FEF7B7FDEEE700BF000C0140F8
:1029FC0008B54FF47A70FEF7AEFDFAE708B500F0B3
:102A0C004DFD074B1860074B196819B10122064898
:102A1C00FEF78AFC00F026FD0A20FEF79CFDF9E784
:102A2C0088120020401300208813002070B5092361
:102A3C0092B008934FF4803309934FF4003201267F
:102A4C000224109308A84FF4E0130A920E960F94E8
:102A5C001193FDF707FF00B1FEE70F2505900690D7
:102A6C000790314603A803950494FEF7A3F900B12F
:102A7C00FEE74FF48043684600940293FEF782FA17
:102A8C00044600B1FEE7FEF747FA4FF47A73B0FB49
:102A9C00F3F0FDF7BBFD0420FDF7CEFD22462946E1
:102AAC004FF0FF30FDF772FD12B070BD2DE9F04113
:102ABC0098B0FDF7B5FBFFF7B9FF664B00259A6997
:102ACC0013A942F020029A619A69634802F020022D
:102ADC000492049A9A69012742F004029A619A6955
:102AEC004FF4006602F004020592059A9A694FF0C1
:102AFC00020842F008029A619B69149503F00803DE
:102B0C000693069BFF2313931595FDF7A1FD13A9BF
:102B1C005148782413961497CDF85880FDF798FDFA
:102B2C0013A94E4813941497CDF85880FDF790FDD7
:102B3C002A4631464848FDF763FE214647482A4657
:102B4C00FDF75EFE464C474B204623604FF4602356
:102B5C00A560E5606561E36165602761FDF770FC68
:102B6C0000B1FEE70823159013A920461393149780
:102B7C00FDF784FB00B1FEE73B4B3C4A58601A6002
:102B8C0040F6FF7218469A60FDF73FFE00B1FEE773
:102B9C00374B38494FF4E13283E806009860D8602F
:102BAC0018610C229861D86118465A61FEF734FB03
:102BBC00064600B1FEE718A8394640F85C6DFEF7F2
:102BCC00D2FC2D4B3946186018A840F8586DFEF70A
:102BDC00CAFC2A4B3946186018A840F8546DFEF709
:102BEC00C2FC274C274B09AF18600FCC25460FC7EA
:102BFC0055F8043B314609A83B60FEF790FCDFF822
:102C0C008C800EAFC8F800000FCD0FC72B68314673
:102C1C000EA83B60FEF783FC04F1180713ADC8F84F
:102C2C0000000FCF0FC53B68314613A82B60FEF791
:102C3C0076FC2C3407ABC8F8000094E8030083E85A
:102C4C00030018463146FEF7A2FC0F4B1860FEF746
:102C5C0061FCFEE70010024000080140000C01403E
:102C6C005813002000240140441300200030004081
:102C7C008813002000380140CC130020C81300201A
:102C8C00A840000854130020401300203C130020DF
:102C9C00044B1B6893F8800093F88130C01A18BF5E
:102CAC00012070478812002007B502A901F8010D18
:102CBC000A2301220248FEF7DBFA03B05DF804FB9D
:102CCC008813002070B50C460646FDF743FAA04267
:102CDC00054607DA241A14F1FF3404D32020FFF739
:102CEC00E3FFF8E725463544AE4204D016F8010B55
:102CFC00FFF7DAFFF8E770BDF8B5069E15460746F4
:102D0C00079A1C6811B92868A04225D1013A94424F
:102D1C0004D9BDE8F8400720FFF7C6BF01341C609A
:102D2C00D1B12968641A012C05D9481C621E3144A2
:102D3C00304401F028F82B682146F75428683044B9
:102D4C00FFF7C0FF2B6801332B60013C03D0082038
:102D5C00FFF7AAFFF9E7F8BD2B680121F7542868A3
:102D6C003044FFF7AFFF2B6801332B60F8BD000038
:102D7C0010B5FFF78DFF18B90A20FEF7ECFBF8E74A
:102D8C000A4B186890F88120531CDBB280F8813014
:102D9C001B06845C07D5002180F8811080F8801018
:102DAC00802201F00BF8204610BD00BF88120020D5
:102DBC00084B10B51C6854B9FFF76AFF40B1FFF718
:102DCC00D7FF032804D1044B01241C6000E000242D
:102DDC00204610BD84120020781200202DE9F04FFF
:102DEC00A74B87B01C6807460D461E46F4B90D204C
:102DFC00FFF75AFF0A20FFF757FFA24B4FF0FF32A5
:102E0C001C60A14B40F214501C60A04BA0491A60EE
:102E1C00A04BA14A1C60234603EB020E9C54413389
:102E2C00834241F804EFF7D101233360384600F0B8
:102E3C0017FD0023284602930393FDF78BF918B175
:102E4C002C182E46402706E0904E00240127B04651
:102E5C00DFF834921EE0A642F6D016F8010B03AB55
:102E6C008DE8A00002AA0121FFF746FFF3E70D2829
:102E7C0014D0002C46D0012C20D15B281AD0402332
:102E8C0001939DF81000009503AB02AA3946FFF799
:102E9C0033FF0024FFF76CFF0A28E8D17F4800F0CD
:102EAC0003FD039E0023AB552B78774F002B40F08E
:102EBC008F81A4E18DF811000224EBE7A0F141030E
:102ECC00072B09D8DFE813F0110129015D00680018
:102EDC000800080008004E0006AB234403F8080C59
:102EEC0004AB9A4601341C444FF0400B5445D0D0EF
:102EFC001AF8010B03AB8DE8200802AA3946FFF73C
:102F0C00FBFEF3E70B2870D00ED804284FD006D860
:102F1C00022841D031D8012840F04C8122E006280B
:102F2C002FD07BD3082816E0152800F0868008D80F
:102F3C000F287FD0102800F0D8800E2840F03A815E
:102F4C00EBE01B280AD002D8182876D032E17F2873
:102F5C0000F0A680FF2800F0A3802BE18DF8100074
:102F6C00012431E1029C002C00F02E810820FFF797
:102F7C009BFE029B013B0293F4E72C704FF0FF3059
:102F8C0046E1029B039A934280F01D81E85CFFF7B7
:102F9C008BFE029B013308E0029C002C00F0148194
:102FAC000820FFF781FE029B013B02930BE1029983
:102FBC00039B994280F0088103F1FF3ABAEB010AB6
:102FCC0009D06B18013129445246184600F0DBFE3B
:102FDC005146FFF777FE2020FFF766FE0820FFF72B
:102FEC0063FE1AF1FF3AF9D27BE0029B039A9342FB
:102FFC0080F0EA809A46039B9A4505D22020FFF781
:10300C0053FE0AF1010AF6E7029B0AF1FF3B534516
:10301C0069D20820FFF748FEDA46F5E702980399D3
:10302C00884280F0D180091A2844FFF74BFE039B9D
:10303C000293C9E087F00107C6E0029B33B1082078
:10304C00FFF732FE029B013B0293F6E7039A002A3C
:10305C0000F0BA809A46039B9A4505D22020FFF7D0
:10306C0023FE0AF1010AF6E7029A92450AF1FF3AA9
:10307C0003D90820FFF718FEF6E70392A4E000BF7F
:10308C00CC1200207C1200208012002008000020AE
:10309C0010140020D012002064140020604200089C
:1030AC000299002900F09080039B481EC1EB030A93
:1030BC00524629440290284400F065FE0820FFF790
:1030CC00F3FD029851462844FFF7FCFD2020FFF742
:1030DC00EBFD0820FFF7E8FD53460AF1FF3A002B01
:1030EC00F7D1039B013B03936EE03368002BC0F2D6
:1030FC008B805A1E3260013208BF474AD9F8001043
:10310C0004BF12683260D8F800208A4201D13360C3
:10311C007AE0424B53F822A015E03368002B73DBA6
:10312C00D9F8002093426FD03B49013309683360D2
:10313C008B42C4BF00233360D8F800309A4206D0CB
:10314C00364A52F823A0BAF1000F02D15CE0DFF846
:10315C00D8A0029C34B10820FFF7A6FD029B013BCE
:10316C000293F6E7039B93B1039B9C4204D220206D
:10317C00FFF79AFD0134F7E7029B04F1FF3BA342F2
:10318C0004D20820FFF790FD5C46F5E70393514607
:10319C00284600F03BFE2846FCF7DCFF029B039020
:1031AC0098427FF676AEC11AE818FFF78BFD039BA9
:1031BC0002936EE640230193009503AB02AA3946B5
:1031CC00FFF79AFD00E000240A20FEF7C4F961E63F
:1031DC00212B14D03C68114B294653F8240000F0E5
:1031EC0015FE0D4A631C1168132BC8BF00238B42BC
:1031FC00C8BF13600A4A3B601368013313603A6816
:10320C00084B30461A6003E00720FFF74DFD40E6FF
:10321C0007B0BDE8F08F00BF7C1200201414002012
:10322C00D012002008000020AF4100080249002302
:10323C000B70FFF7D3BD00BFD013002070B5002476
:10324C0026460D1F024612F8013B202B01D11046D9
:10325C00F8E7092BFBD05BB1013445F8040F0246AB
:10326C0010F8013B23B1202B05D0092BF7D102E03C
:10327C0041F8243008E0082C02F101001670E1D16D
:10328C002146024800F0ECFA204670BD624200086C
:10329C002DE9F04F704BADB0002401911C60054638
:1032AC009846002800F0D0800378002B00F0CC80EA
:1032BC00FCF750FF3F2803D9684800F0F5FAC3E04B
:1032CC0029460CA800F0A2FDA14601250CAF3B78C5
:1032DC00002B00F0B8807A1E0023013211781646BC
:1032EC00B1B1272906D112F8011C5C29F5D083F065
:1032FC000103F2E753B93B29EFD1B742EDD016F8F1
:10330C00011C5C29E9D03370013601E00123E4E7AC
:10331C003846FCF71FFF00239C464FF0400E1CAABA
:10332C00002860D0BEF1000F60D0032B07F1010B19
:10333C00397800F1FF3A3DD05C290ED1BCF15C0F1D
:10334C0046D00238BAF1000F02D182F800904FE05B
:10335C0082468C46797807F1020B012B11D0022B97
:10336C0023D0272903D1BCF15C0F2DD104E02429F3
:10337C0002D1BCF15C0F29D111700EF1FF3E01326C
:10338C002CE0282928D07B2926D04FF02403BEF12D
:10339C00010F137004D14FF0000E013273461EE082
:1033AC005170AEF1020E023218E0292916D07D2997
:1033BC0012D113E0272902D1BCF15C0F0ED1117090
:1033CC000EF1FF3E01320AE0032308E0012306E080
:1033DC00012BDAD0022BCFD1022300E00023504680
:1033EC008C465F469CE7BEF1000FAED102F8019C03
:1033FC0003A91CA8FFF722FF074600B30398FFF7A9
:10340C0003FA824620B90399154800F029FA16E010
:10341C0043689F4202DDFFF705FA10E003AB3A4622
:10342C000199C768B847DAF80830002805EA03059F
:10343C00D8F8003018BF4FF0FF3413B104E04FF050
:10344C00FF34374643E714B14FF0FF3000E0284615
:10345C002DB0BDE8F08F00BF78120020814200082B
:10346C009642000808B50A48FFF7E0FE00B20028B3
:10347C0005DD0849084800F0C9FC002101E003D132
:10348C0001210548FFF704FF034B00221A7008BD09
:10349C00B9420008D01300208C12002010B58220F5
:1034AC0000F042FA044618B18222002100F086FC9A
:1034BC00204610BD90F880301A065EBF5A1C80F86A
:1034CC008020C154704700007FB50268104B9A42AF
:1034DC001BD1104C0022216868460F4DFEF75CF89A
:1034EC009DE80700102885E8070006D10B4BC9B2F0
:1034FC001868FFF7DFFF00232B60216808480122C2
:10350C0004B0BDE87040FDF70FBF04B070BD00BF44
:10351C000038014040130020781900208812002048
:10352C0088130020204B07B59A69032042F0010252
:10353C009A619B6903F001030193019BFDF714F859
:10354C00002211466FF00B00FDF720F80022114607
:10355C006FF00A00FDF71AF8002211466FF009000F
:10356C00FDF714F8002211466FF00400FDF70EF879
:10357C00002211466FF00300FDF708F800220F211E
:10358C006FF00100FDF702F800220F214FF0FF3021
:10359C00FCF7FCFF054A536823F0E06343F08063BB
:1035AC00536003B05DF804FB0010024000000140C2
:1035BC007FB502680B4B9A4211D103F56C439A69A3
:1035CC0002A942F400729A619B69074803F40073E4
:1035DC000193019B032302930393FDF739F807B082
:1035EC005DF804FB00240140000C014010B502689A
:1035FC00164B86B09A4227D103F558439A6902A913
:10360C0042F480429A619B69114803F48043019310
:10361C00019B4FF4007302930223039303230024B2
:10362C000593FDF715F84FF4806302A9084802933F
:10363C0003940494FDF70CF8252022460521FCF791
:10364C00A5FF2520FCF7D6FF06B010BD00380140C1
:10365C00000801407047FEE7FEE7FEE7FEE7704713
:10366C0008B5FCF7EFFDBDE80840FDF7CBBF000047
:10367C000148FDF78DBE00BF8813002073B51546B9
:10368C000C468E18B442214610D00B7809480A2BF0
:10369C0003BF40F60D2202A921F8042D0A230CBF0A
:1036AC00022201220134FDF7E3FDEBE7284602B0CC
:1036BC0070BD00BF881300200A4B10B50A490B4A95
:1036CC001C680A4404B919601B681844824237BF4D
:1036DC00074B044A0C224FF0FF302ABF10601A60CF
:1036EC00184610BDD41200208819002000020000DA
:1036FC008419002070B50123B1FBF3F4944201D37B
:10370C005343F9E77BB1B1FBF3F40568092C03FBD8
:10371C00141105F10106CCBF37343034066093FB2D
:10372C00F2F32C70EEE770BD2DE9F34113460C4615
:10373C00064602AD45F8040D2D272278002A50D0FC
:10374C00252A48D16278642A1ED00AD8582A38D043
:10375C00632A11D0252A3CD10199481C01900A708A
:10376C0037E0732A1CD002D8692A0DD031E0752AB3
:10377C0023D0782A25D02CE0019A0433511C0191D6
:10378C0053F8041C117024E0196803F10408002993
:10379C0004DA019B49425A1C01921F700A2214E060
:1037AC00191D1B681A7832B1019A501C019013F83C
:1037BC00010B1070F6E70B460BE003F104080A222C
:1037CC0002E003F10408102219682846FFF792FF63
:1037DC0043460234B1E701990134481C01900A7048
:1037EC00ABE7019B1A700198801B02B0BDE8F08119
:1037FC0030B50446002023788BB3252B28D1637871
:10380C00651C692B14D006D8632B0ED0642B0FD0FB
:10381C00582B1AD115E0752B0AD0782B11D0732B9D
:10382C0013D10A1D0968401A05E00A1D431C12E059
:10383C0000F10B0307E00B1811F8014B002CFAD127
:10384C0009E000F108030A1D05E0431C0A4602E0EA
:10385C000A462546431C6C1C11461846CBE730BD66
:10386C000FB4B0B582B000AF07F1180454F8045B84
:10387C00214628467C60FFF7BBFF073020F007008D
:10388C00ADEB000D2246294668467C60FFF74CFFE5
:10389C00694602460120FFF7F1FE0837BD46BDE838
:1038AC00B04004B07047000038B50546FCF752FC38
:1038BC002946024604460120FFF7E0FE0122054698
:1038CC0005491046FFF7DAFE01342844001B18BFE7
:1038DC004FF0FF3038BD00BFAE4100080E4B70B545
:1038EC001E460E4C0025E41AA410A54204D056F82E
:1038FC00253098470135F8E700F0BAFB084B094C26
:10390C001E46E41AA4100025A54204D056F8253012
:10391C0098470135F8E770BDDC420008DC4200082E
:10392C00DC420008E0420008024B0146186800F037
:10393C0003B800BF0C0500202DE9F04F01F10B047A
:10394C00162C85B0814603D934F0070401D502E06A
:10395C0010248C4203D20C23C9F80030E7E148460E
:10396C0000F034FAB4F5FC7F9D4D17D204F1080237
:10397C002A445668A2F108018E424FEAD40302D1C0
:10398C00D668B24208D07368F268B16823F00303BA
:10399C00CA60334491602FE002333DE0630A1AD0D1
:1039AC00042B02D8A309383318E0142B01D85B334D
:1039BC0014E0542B02D8230B6E330FE0B3F5AA7F1F
:1039CC0002D8E30B773309E040F25452934204D807
:1039DC00A30C7C3302E03F2300E07E235A1C05EB52
:1039EC00C202A2F1080056680CE00029F16808DB5D
:1039FC00B368D9608B60B3185A6842F001025A6000
:103A0C00A0E10E46864206D0726822F00302111B1A
:103A1C000F29EADD013B0133714A2E6902F10807D7
:103A2C00BE42394679D0706820F00300C4EB000E1A
:103A3C00BEF10F0F0DDD331944F0010474605361B6
:103A4C0013614EF00102DF609F605A6043F80EE094
:103A5C0078E1BEF1000F5761176105DB3044436814
:103A6C0043F0010343606DE1B0F5007F15D2C0084F
:103A7C004FEAA00E012707FA0EFE576801304EEAF6
:103A8C000707576052F830E002EBC007083FF760B9
:103A9C00C6F808E042F830603DE0420A042A02D839
:103AAC008209383215E0142A01D85B3211E0542A0D
:103ABC0002D8020B6E320CE0B2F5AA7F02D8C20B10
:103ACC00773206E040F25457BA429ABF820C7C32ED
:103ADC007E22571C55F8377005EBC20EBE45DFF839
:103AEC0000C10DD10120921000FA02F2DCF80400A2
:103AFC001043CCF80400724609E0BF68BE4504D000
:103B0C007A6822F003029042F7D3BE46FA68F2605C
:103B1C00C6F808E09660CEF80C6001209A1000FA06
:103B2C0002F2686882425DD8024206D123F0030398
:103B3C005200024203F10403FAD005EBC308C2465B
:103B4C009C46DAF80C6056452CD07068F76820F06B
:103B5C000300C4EB000EBEF10F0F11DD331944F05E
:103B6C000104746056F8082FD760BA604EF0010259
:103B7C006B612B61D96099605A6043F80EE00BE0E1
:103B8C00BEF1000F0CDB33185A6842F001025A6088
:103B9C0056F8083FDF60BB60484600F018F9D5E0E6
:103BAC003E46D0E70CF1010C1CF0030F0AF1080A99
:103BBC00C7D1980704D16B6823EA02036B6004E059
:103BCC0058F80809013B8045F3D0686852008242DE
:103BDC0008D83AB163460242AFD104335200FAE737
:103BEC000C000020D5F808B0DBF8046026F00306C2
:103BFC00B44203D8331B0F2B00F39B80554A564914
:103C0C001268086802F11008544A01300191A0446E
:103C1C001FBF02F1FF318844514201EA08080BEB47
:103C2C000603414648460392029300F0D1F8421C29
:103C3C0007466FD0029B039A834201D9AB4569D1E9
:103C4C00DFF824A1BB42DAF80000DFF820C14044C1
:103C5C00CAF8000008D113EA0C0F05D1AB68464432
:103C6C0046F001065E6049E00199D1F800E0BEF132
:103C7C00FF3F15BFFB1A384B1B181F6018BFCAF843
:103C8C00003017F007031CBFC3F10803FF18B8443A
:103C9C001A4408EA0C08C8EB02084146484600F0F2
:103CAC0097F8431C04BF38464FF00008DAF8003090
:103CBC00C21B4244434442F00102AB45AF60CAF818
:103CCC0000307A601AD00F2E02D801237B6021E0DD
:103CDC00DBF804300C3E26F0070603F001033343F7
:103CEC00CBF8043005220BEB06030F2E5A609A60BA
:103CFC0004D90BF10801484600F0FCF8184ADAF830
:103D0C00003011688B4288BF1360164A11688B42D1
:103D1C0088BF1360AB685A6822F003029442A2EB8E
:103D2C00040301D80F2B04DC484600F050F80026A1
:103D3C000CE0AE6844F0010243F0010334447260BD
:103D4C00AC606360484600F042F80836304605B077
:103D5C00BDE8F08FE0120020180400208000000065
:103D6C00DC120020D8120020E41200207F0000009A
:103D7C0010B5431E0A44914204D011F8014B03F8CC
:103D8C00014FF8E710BD884210B501EB020301D8D2
:103D9C00421E0BE09842FBD28118D21AD34204D0B7
:103DAC0013F8014D01F8014DF8E710BD994204D00C
:103DBC0011F8014B02F8014FF8E710BD034602441D
:103DCC00934202D003F8011BFAE770477047704723
:103DDC0038B5064C0023054608462360FFF76CFCFB
:103DEC00431C02D1236803B12B6038BD8419002019
:103DFC00C9B2034610F8012B1AB19142F9D11846F9
:103E0C00704700290CBF184600207047034611F874
:103E1C00012B03F8012B002AF9D1704730B582B180
:103E2C00451E013915F8013F11F8014FA34206D187
:103E3C00EC431444E04201D0002BF3D11C46181B78
:103E4C0030BD104630BD00002DE9F8438946254FA2
:103E5C000646FFF7BBFFBB68DFF894805D68A8F1EE
:103E6C00110425F003052C44C9EB0404B4FBF8F44D
:103E7C00013C08FB04F4444505DA3046FFF7A7FF84
:103E8C000020BDE8F88300213046FFF7A1FFBB6896
:103E9C002B449842F1D161423046FFF799FF013033
:103EAC0010D100213046FFF793FFBA68831A0F2B0D
:103EBC00E3DD0D4943F0010309685360401A0B49D7
:103ECC000860DAE7BB68094A2D1B45F001055D6007
:103EDC00136830461C1B1460FFF779FF0120BDE806
:103EEC00F88300BF0C00002018040020E41200200E
:103EFC00800000002DE9F04104468846002900F0BE
:103F0C00AD80FFF763FF58F8042C554D22F00100EB
:103F1C00A8F108031F18A9687E688F4226F00306D3
:103F2C0002F001021BD130443AB958F8082C9B1A04
:103F3C0099681044DA68CA60916040F001025A60D6
:103F4C00AB60484B1B68984204D3474B204619681A
:103F5C00FFF77AFF2046BDE8F041FFF738BF7E60DF
:103F6C007AB958F8081C05F1080E5B1A08449968D0
:103F7C00714508D0D3F80CE0C1F80CE0CEF808106D
:103F8C0002E0002200E00122B9194968C9070ED4E9
:103F9C003044B96842B9354EB14205D16B612B61E1
:103FAC000122D960996002E0FE68CE60B16040F0F9
:103FBC00010159601850002ACCD1B0F5007F12D203
:103FCC00C0088110012202FA01F16A6801300A432B
:103FDC006A6055F8301005EBC002083ADA60996057
:103FEC0045F8303038E0420A042A02D882093832C7
:103FFC0015E0142A01D85B3211E0542A02D8020BC6
:10400C006E320CE0B2F5AA7F02D8C20B773206E012
:10401C0040F254518A429ABF820C7C327E22511C4F
:10402C0055F8311005EBC2068E420D4F0BD1012114
:10403C00921001FA02F2796811437960314608E076
:10404C0089688E4204D04A6822F003029042F7D36A
:10405C00CE68DE609960B360CB607BE7BDE8F08131
:10406C000C00002014040020E0120020140000209A
:10407C00F8B500BFF8BC08BC9E467047F8B500BF49
:08408C00F8BC08BC9E46704719
:1040940002030405060708090A0B0C0D0E0F101085
:1040A4000102000051420008D1290008000000006C
:1040B400000000004000000048420008FD290008FC
:1040C4000000000000000000400000003C42000826
:1040D400092A000800000000000000008000000021
:1040E4008000000004000000000000000000000048
:1040F400010203040607080900000000010203048A
:1041040049444C4500636F6D6D616E642E63206E8F
:104114006F206D6174636820636F6D6D616E640000
:104124002573202D2025730A0055736167653A0AAB
:10413400257320002D204E6F206164646974696FBB
:104144006E616C2068656C7020617661696C616277
:104154006C652E002D2000556E6B6E6F776E20639C
:104164006F6D6D616E642027257327202D20747276
:1041740079202768656C702720776974686F757477
:1041840020617267756D656E747320666F72206C42
:10419400697374206F6620616C6C206B6E6F776E30
:1041A40020636F6D6D616E64730A0A0068656C70DC
:1041B400007072696E7420636F6D6D616E6420644B
:1041C40065736372697074696F6E2F757361676567
:1041D4000A002020202D207072696E74206272699A
:1041E4006566206465736372697074696F6E206FAD
:1041F4006620616C6C20636F6D6D616E64730A6818
:10420400656C7020636F6D6D616E64202E2E2E0AB6
:104214002020202D207072696E7420646574616999
:104224006C6564207573616765206F662027636F12
:104234006D6D616E64270A0073746D33325573615A
:1042440072743100616C61726D4F75740073746DBA
:1042540033324C697665436865636B000D002A2A26
:1042640020546F6F206D616E79206172677320280E
:104274006D61782E20256429202A2A0A0023232010
:10428400436F6D6D616E6420746F6F206C6F6E6729
:104294002100556E6B6E6F776E20636F6D6D616E6E
:1042A400642027257327202D2074727920276865C0
:1042B4006C70270A004155544F49543E0043000096
:1042C400B04100080800000001000000A529000812
:0842D400B5410008D6410008C5
:0442DC0031010008A4
:0442E0000D010008C4
:1042E40000A24A04AAAAAAAAFFFFFFFF0000000036
:1042F400000000000C0000200C000020140000202E
:10430400140000201C0000201C00002024000020B9
:10431400240000202C0000202C0000203400002069
:10432400340000203C0000203C0000204400002019
:10433400440000204C0000204C00002054000020C9
:10434400540000205C0000205C0000206400002079
:10435400640000206C0000206C0000207400002029
:10436400740000207C0000207C00002084000020D9
:10437400840000208C0000208C0000209400002089
:10438400940000209C0000209C000020A400002039
:10439400A4000020AC000020AC000020B4000020E9
:1043A400B4000020BC000020BC000020C400002099
:1043B400C4000020CC000020CC000020D400002049
:1043C400D4000020DC000020DC000020E4000020F9
:1043D400E4000020EC000020EC000020F4000020A9
:1043E400F4000020FC000020FC0000200401002058
:1043F400040100200C0100200C0100201401002005
:10440400140100201C0100201C01002024010020B4
:10441400240100202C0100202C0100203401002064
:10442400340100203C0100203C0100204401002014
:10443400440100204C0100204C01002054010020C4
:10444400540100205C0100205C0100206401002074
:10445400640100206C0100206C0100207401002024
:10446400740100207C0100207C01002084010020D4
:10447400840100208C0100208C0100209401002084
:10448400940100209C0100209C010020A401002034
:10449400A4010020AC010020AC010020B4010020E4
:1044A400B4010020BC010020BC010020C401002094
:1044B400C4010020CC010020CC010020D401002044
:1044C400D4010020DC010020DC010020E4010020F4
:1044D400E4010020EC010020EC010020F4010020A4
:1044E400F4010020FC010020FC0100200402002053
:1044F400040200200C0200200C0200201402002000
:10450400140200201C0200201C02002024020020AF
:10451400240200202C0200202C020020340200205F
:10452400340200203C0200203C020020440200200F
:10453400440200204C0200204C02002054020020BF
:10454400540200205C0200205C020020640200206F
:10455400640200206C0200206C020020740200201F
:10456400740200207C0200207C02002084020020CF
:10457400840200208C0200208C020020940200207F
:10458400940200209C0200209C020020A40200202F
:10459400A4020020AC020020AC020020B4020020DF
:1045A400B4020020BC020020BC020020C40200208F
:1045B400C4020020CC020020CC020020D40200203F
:1045C400D4020020DC020020DC020020E4020020EF
:1045D400E4020020EC020020EC020020F40200209F
:1045E400F4020020FC020020FC020020040300204E
:1045F400040300200C0300200C03002014030020FB
:10460400140300201C0300201C03002024030020AA
:10461400240300202C0300202C030020340300205A
:10462400340300203C0300203C030020440300200A
:10463400440300204C0300204C03002054030020BA
:10464400540300205C0300205C030020640300206A
:10465400640300206C0300206C030020740300201A
:10466400740300207C0300207C03002084030020CA
:10467400840300208C0300208C030020940300207A
:10468400940300209C0300209C030020A40300202A
:10469400A4030020AC030020AC030020B4030020DA
:1046A400B4030020BC030020BC030020C40300208A
:1046B400C4030020CC030020CC030020D40300203A
:1046C400D4030020DC030020DC030020E4030020EA
:1046D400E4030020EC030020EC030020F40300209A
:1046E400F4030020FC030020FC0300200404002049
:1046F4000404002000000200FFFFFFFF0000000090
:1047040000000000000000000000000000000000A5
:10471400000000000000000000000000C14200088A
:104724000000000000000000000000000000000085
:104734000000000000000000000000000000000075
:104744000000000000000000000000000000000065
:104754000000000000000000000000000000000055
:104764000000000000000000000000000000000045
:104774000000000000000000000000000000000035
:104784000000000000000000000000000000000025
:104794000000000000000000000000000000000015
:1047A4000000000000000000000000000000000005
:1047B40000000000000000000000000000000000F5
:1047C40000000000000000000000000000000000E5
:1047D40000000000000000000000000000000000D5
:1047E4000000000000000000000000001C04002085
:04000005080001717D
:00000001FF
